LANSA     JQMOBILE  tsp_lansa_jqmobile_webletbuilder.xsl              0000000001000010000001000EFBBBF3C3F786D6C2076657273696F6E3D22312E302220656E636F64696E673D227574662D38223F3E0D0A0D0A3C212D2D2028632920323031312C2032303134204C414E53412020202020202020202020202020202020202020202020202020202020202020202D2D3E0D0A3C212D2D206A714D6F62696C65205765626C6574205374796C657368656574204275696C646572202020202020202020202020202020202020202D2D3E0D0A3C212D2D2024576F726B66696C653A3A207473705F6C616E73615F6A716D6F62696C655F7765626C65746275696C6465722E78736C20202024202D2D3E0D0A3C212D2D20245265766973696F6E3A3A 
LANSA     JQMOBILE  tsp_lansa_jqmobile_webletbuilder.xsl              00000000010000200000000002031302020202020202020202020202020202020202020202020202020202020202020202020202024202D2D3E0D0A0D0A3C78736C3A7472616E73666F726D2076657273696F6E3D22312E302220786D6C6E733A78736C3D22687474703A2F2F7777772E77332E6F72672F313939392F58534C2F5472616E73666F726D2220786D6C6E733A78736C743D22687474703A2F2F7777772E6C616E73612E636F6D2F323030322F58534C2F5472616E73666F726D2D416C696173220D0A0909090909786D6C6E733A6C786D6C3D22687474703A2F2F7777772E6C616E73612E636F6D2F323030322F584D4C2F52756E74696D652D446174612220786D 
LANSA     JQMOBILE  tsp_lansa_jqmobile_webletbuilder.xsl              00000000020000100000010006C6E733A74736D6C3D22687474703A2F2F7777772E6C616E73612E636F6D2F323030322F584D4C2F47656E65726174696F6E2D4D65746164617461220D0A0909090909786D6C6E733D22687474703A2F2F7777772E77332E6F72672F313939392F7868746D6C2220786D6C6E733A77643D22687474703A2F2F7777772E6C616E73612E636F6D2F323030322F58534C2F5765626C65742D44657369676E22206578636C7564652D726573756C742D70726566697865733D2274736D6C223E0D0A0D0A093C78736C3A696D706F727420687265663D227473705F676C6F62616C5F68656C7065722E78736C222F3E0D0A093C78736C3A6F75747075 
LANSA     JQMOBILE  tsp_lansa_jqmobile_webletbuilder.xsl              000000000200002000000000074206D6574686F643D22786D6C22206F6D69742D786D6C2D6465636C61726174696F6E3D226E6F2220656E636F64696E673D225554462D382220696E64656E743D22796573222F3E0D0A093C78736C3A6E616D6573706163652D616C696173207374796C6573686565742D7072656669783D2278736C742220726573756C742D7072656669783D2278736C222F3E0D0A0D0A093C74736D6C3A646566696E6974696F6E3E0D0A09093C74736D6C3A64656661756C742D6C61796F75742D7765626C65743E7374645F6C61796F75745F76323C2F74736D6C3A64656661756C742D6C61796F75742D7765626C65743E0D0A093C2F74736D6C3A6465 
LANSA     JQMOBILE  tsp_lansa_jqmobile_webletbuilder.xsl              000000000300001000000100066696E6974696F6E3E0D0A0D0A093C78736C3A7661726961626C65206E616D653D22636F6E74657874222073656C6563743D222F74736D6C3A646174612F74736D6C3A636F6E74657874222F3E0D0A093C78736C3A7661726961626C65206E616D653D227765626C6574222073656C6563743D2224636F6E746578742F74736D6C3A7765626C6574222F3E0D0A093C78736C3A7661726961626C65206E616D653D227765626C65746E616D65222073656C6563743D2224636F6E746578742F74736D6C3A7765626C65742F74736D6C3A6E616D65222F3E0D0A0D0A093C78736C3A74656D706C617465206D617463683D2274736D6C3A64617461 
LANSA     JQMOBILE  tsp_lansa_jqmobile_webletbuilder.xsl              0000000003000020000000000223E0D0A09093C78736C3A6170706C792D74656D706C617465732073656C6563743D222A222F3E0D0A093C2F78736C3A74656D706C6174653E0D0A0D0A093C78736C3A74656D706C617465206D617463683D2274736D6C3A646174615B4066756C6C2D646F63756D656E74203D202774727565275D223E0D0A09093C78736C3A63616C6C2D74656D706C617465206E616D653D22626C616E6B5F6C696E65222F3E0D0A09093C78736C3A636F6D6D656E743E0D0A0909093C78736C3A746578743E204E616D65202020202020203A203C2F78736C3A746578743E3C78736C3A76616C75652D6F662073656C6563743D22247765626C65746E616D 
LANSA     JQMOBILE  tsp_lansa_jqmobile_webletbuilder.xsl              000000000400001000000100065222F3E3C78736C3A63616C6C2D74656D706C617465206E616D653D22636F6D6D656E745F6E65775F6C696E65222F3E0D0A0909093C78736C3A746578743E204465736372697074696F6E3A203C2F78736C3A746578743E3C78736C3A76616C75652D6F662073656C6563743D22247765626C65742F74736D6C3A7469746C65222F3E3C78736C3A63616C6C2D74656D706C617465206E616D653D22636F6D6D656E745F6E65775F6C696E65222F3E0D0A0909093C78736C3A746578743E2054696D657374616D7020203A203C2F78736C3A746578743E3C78736C3A76616C75652D6F662073656C6563743D2224636F6E746578742F74736D6C 
LANSA     JQMOBILE  tsp_lansa_jqmobile_webletbuilder.xsl              00000000040000200000000003A74696D657374616D70222F3E3C78736C3A746578743E203C2F78736C3A746578743E0D0A09093C2F78736C3A636F6D6D656E743E0D0A09093C78736C3A63616C6C2D74656D706C617465206E616D653D22626C616E6B5F6C696E65222F3E0D0A09093C78736C743A7472616E73666F726D2076657273696F6E3D22312E302220786D6C6E733A78736C3D22687474703A2F2F7777772E77332E6F72672F313939392F58534C2F5472616E73666F726D220D0A090909090909090909090909786D6C6E733A6C786D6C3D22687474703A2F2F7777772E6C616E73612E636F6D2F323030322F584D4C2F52756E74696D652D44617461220D0A0909 
LANSA     JQMOBILE  tsp_lansa_jqmobile_webletbuilder.xsl              000000000500001000000100009090909090909090909786D6C6E733A77643D22687474703A2F2F7777772E6C616E73612E636F6D2F323030322F58534C2F5765626C65742D44657369676E22200D0A090909090909090909090909786D6C6E733D22687474703A2F2F7777772E77332E6F72672F313939392F7868746D6C220D0A0909090909090909090909096578636C7564652D726573756C742D70726566697865733D226C786D6C207764223E0D0A09093C78736C3A63616C6C2D74656D706C617465206E616D653D22626C616E6B5F6C696E65222F3E0D0A0909093C78736C3A6170706C792D74656D706C617465732073656C6563743D222A222F3E0D0A09093C7873 
LANSA     JQMOBILE  tsp_lansa_jqmobile_webletbuilder.xsl              00000000050000200000000006C3A63616C6C2D74656D706C617465206E616D653D22626C616E6B5F6C696E65222F3E0D0A09093C2F78736C743A7472616E73666F726D3E0D0A093C2F78736C3A74656D706C6174653E0D0A0D0A093C212D2D20436F6E7465787420636F6E74656E7420616C72656164792070726F6365737365642E2049676E6F726520636F6E74656E74202D2D3E0D0A093C78736C3A74656D706C617465206D617463683D2274736D6C3A636F6E74657874223E0D0A093C2F78736C3A74656D706C6174653E0D0A0D0A093C212D2D204C61796F7574202D2D3E0D0A093C78736C3A74656D706C617465206D617463683D2274736D6C3A6C61796F7574223E 
LANSA     JQMOBILE  tsp_lansa_jqmobile_webletbuilder.xsl              00000000060000100000010000D0A09093C78736C3A6170706C792D74656D706C617465732073656C6563743D2274736D6C3A746563686E6F6C6F67792D73657276696365732F74736D6C3A746563686E6F6C6F67792D736572766963655B406E616D65203D20274C414E53413A4A514D4F42494C45275D22202F3E0D0A093C2F78736C3A74656D706C6174653E0D0A0D0A093C78736C3A74656D706C617465206D617463683D2274736D6C3A746563686E6F6C6F67792D73657276696365732F74736D6C3A746563686E6F6C6F67792D736572766963655B406E616D65203D20274C414E53413A4A514D4F42494C45275D223E0D0A09093C78736C3A706172616D206E616D65 
LANSA     JQMOBILE  tsp_lansa_jqmobile_webletbuilder.xsl              00000000060000200000000003D226F75747075745F696E64656E74222073656C6563743D22276E6F2722202F3E0D0A09093C78736C3A7661726961626C65206E616D653D226C61796F75745F716E616D65222073656C6563743D22407765626C65742D6E616D6522202F3E0D0A09093C78736C743A696D706F727420687265663D227374645F74797065732E78736C222F3E0D0A09093C78736C743A696D706F727420687265663D227B737562737472696E672D6265666F726528246C61796F75745F716E616D652C20272E27297D2E78736C222F3E0D0A0D0A09093C78736C743A6F7574707574206D6574686F643D22786D6C22206F6D69742D786D6C2D6465636C617261 
LANSA     JQMOBILE  tsp_lansa_jqmobile_webletbuilder.xsl              000000000700001000000100074696F6E3D227965732220656E636F64696E673D225554462D382220696E64656E743D227B246F75747075745F696E64656E747D22202F3E0D0A0D0A09093C77643A646566696E6974696F6E3E3C77643A67726F7570206E616D653D2257414D204C61796F75747322202F3E3C2F77643A646566696E6974696F6E3E0D0A0D0A09093C78736C3A696620746573743D224069732D77616D2D6C61796F7574203D202766616C736527223E0D0A0D0A0909093C77643A65787465726E616C2D7265736F75726365733E0D0A090909093C77643A7374796C65206E616D653D22584D5430324A22206C6F636174696F6E3D2268656164657222202F3E 
LANSA     JQMOBILE  tsp_lansa_jqmobile_webletbuilder.xsl              00000000070000200000000000D0A090909093C77643A7374796C65206E616D653D22584D4330303122206C6F636174696F6E3D2268656164657222202F3E0D0A090909093C77643A736372697074206E616D653D22584D4A30303122206C6F636174696F6E3D2268656164657222202F3E0D0A0909093C2F77643A65787465726E616C2D7265736F75726365733E0D0A0D0A0909093C78736C3A63616C6C2D74656D706C617465206E616D653D22626C616E6B5F6C696E65222F3E0D0A0D0A0909093C78736C743A74656D706C617465206E616D653D226C61796F7574222077643A726F6C653D227374643A6C61796F7574223E0D0A090909093C78736C3A6170706C792D74 
LANSA     JQMOBILE  tsp_lansa_jqmobile_webletbuilder.xsl              0000000008000010000001000656D706C617465732073656C6563743D2274736D6C3A74656D706C6174652D706172616D732F74736D6C3A74656D706C6174652D706172616D22206D6F64653D226C61796F75742D706172616D7322202F3E0D0A0D0A090909093C78736C3A63616C6C2D74656D706C617465206E616D653D22626C616E6B5F6C696E65222F3E0D0A090909093C78736C743A63616C6C2D74656D706C617465206E616D653D227B737562737472696E672D616674657228246C61796F75745F716E616D652C20272E27297D223E0D0A090909093C78736C3A6170706C792D74656D706C617465732073656C6563743D2274736D6C3A74656D706C6174652D7061 
LANSA     JQMOBILE  tsp_lansa_jqmobile_webletbuilder.xsl              000000000800002000000000072616D732F74736D6C3A74656D706C6174652D706172616D22206D6F64653D2263616C6C2D776974682D706172616D73222F3E0D0A090909093C2F78736C743A63616C6C2D74656D706C6174653E0D0A0909093C2F78736C743A74656D706C6174653E0D0A0909093C78736C3A63616C6C2D74656D706C617465206E616D653D22626C616E6B5F6C696E65222F3E0D0A0909093C78736C3A6170706C792D74656D706C617465732073656C6563743D2274736D6C3A74656D706C6174652D6F766572726964657322202F3E0D0A09093C2F78736C3A69663E0D0A093C2F78736C3A74656D706C6174653E0D0A0D0A093C78736C3A74656D706C61 
LANSA     JQMOBILE  tsp_lansa_jqmobile_webletbuilder.xsl              00000000090000100000010007465206D617463683D2274736D6C3A74656D706C6174652D706172616D22206D6F64653D226C61796F75742D706172616D73223E0D0A09093C78736C3A7661726961626C65206E616D653D22706172616D5F6E616D65222073656C6563743D2274736D6C3A706172616D2D6E616D6522202F3E0D0A09093C78736C3A696620746573743D226E6F742874736D6C3A706172616D2D696D706C69636974203D2027747275652729223E0D0A0909093C78736C743A706172616D206E616D653D227B24706172616D5F6E616D657D223E0D0A090909093C78736C3A696620746573743D2274736D6C3A706172616D2D7469705F6964223E0D0A090909 
LANSA     JQMOBILE  tsp_lansa_jqmobile_webletbuilder.xsl              000000000900002000000000009093C78736C3A617474726962757465206E616D653D2277643A7469705F6964223E3C78736C3A76616C75652D6F662073656C6563743D2274736D6C3A706172616D2D7469705F6964222F3E3C2F78736C3A6174747269627574653E0D0A090909093C2F78736C3A69663E0D0A090909093C78736C3A696620746573743D2274736D6C3A706172616D2D74797065223E0D0A09090909093C78736C3A617474726962757465206E616D653D2277643A74797065223E3C78736C3A76616C75652D6F662073656C6563743D2274736D6C3A706172616D2D74797065222F3E3C2F78736C3A6174747269627574653E0D0A090909093C2F78736C3A69 
LANSA     JQMOBILE  tsp_lansa_jqmobile_webletbuilder.xsl              0000000010000010000001000663E0D0A090909093C78736C3A696620746573743D2274736D6C3A706172616D2D726F6C65223E0D0A09090909093C78736C3A617474726962757465206E616D653D2277643A726F6C65223E3C78736C3A76616C75652D6F662073656C6563743D2274736D6C3A706172616D2D726F6C65222F3E3C2F78736C3A6174747269627574653E0D0A090909093C2F78736C3A69663E0D0A090909093C78736C3A696620746573743D2274736D6C3A706172616D2D73656C656374223E0D0A09090909093C78736C3A617474726962757465206E616D653D2273656C656374223E3C78736C3A76616C75652D6F662073656C6563743D2274736D6C3A70 
LANSA     JQMOBILE  tsp_lansa_jqmobile_webletbuilder.xsl              00000000100000200000000006172616D2D73656C656374222F3E3C2F78736C3A6174747269627574653E0D0A090909093C2F78736C3A69663E0D0A0909093C2F78736C743A706172616D3E0D0A09093C2F78736C3A69663E0D0A093C2F78736C3A74656D706C6174653E0D0A0D0A093C78736C3A74656D706C617465206D617463683D2274736D6C3A64656661756C742D7468656D652F74736D6C3A7374796C65223E0D0A09093C77643A7374796C65206E616D653D227B406E616D657D22206C6F636174696F6E3D227B406C6F636174696F6E7D222F3E0D0A093C2F78736C3A74656D706C6174653E0D0A0D0A093C78736C3A74656D706C617465206D617463683D227473 
LANSA     JQMOBILE  tsp_lansa_jqmobile_webletbuilder.xsl              00000000110000100000010006D6C3A74656D706C6174652D706172616D22206D6F64653D2263616C6C2D776974682D706172616D73223E0D0A09093C78736C3A696620746573743D226E6F742874736D6C3A706172616D2D696D706C69636974203D2027747275652729223E0D0A0909093C78736C743A776974682D706172616D206E616D653D227B74736D6C3A706172616D2D6E616D657D222073656C6563743D22247B74736D6C3A706172616D2D6E616D657D22202F3E0D0A09093C2F78736C3A69663E0D0A093C2F78736C3A74656D706C6174653E0D0A0D0A093C78736C3A74656D706C617465206D617463683D2274736D6C3A74656D706C6174652D6F7665727269 
LANSA     JQMOBILE  tsp_lansa_jqmobile_webletbuilder.xsl              0000000011000020000000000646573223E0D0A09093C78736C3A6170706C792D74656D706C617465732073656C6563743D222A22206D6F64653D2274656D706C6174652D6F766572726964657322202F3E0D0A093C2F78736C3A74656D706C6174653E0D0A0D0A093C78736C3A74656D706C617465206D617463683D222A22206D6F64653D2274656D706C6174652D6F7665727269646573223E0D0A09093C78736C3A656C656D656E74206E616D653D227B6E616D6528297D223E0D0A0909093C78736C3A6170706C792D74656D706C617465732073656C6563743D22402A22206D6F64653D2274656D706C6174652D6F7665727269646573222F3E0D0A0909093C78736C3A 
LANSA     JQMOBILE  tsp_lansa_jqmobile_webletbuilder.xsl              00000000120000100000010006170706C792D74656D706C617465732073656C6563743D226E6F6465282922206D6F64653D2274656D706C6174652D6F766572726964657322202F3E0D0A09093C2F78736C3A656C656D656E743E0D0A093C2F78736C3A74656D706C6174653E0D0A0D0A093C78736C3A74656D706C617465206D617463683D22402A22206D6F64653D2274656D706C6174652D6F7665727269646573223E0D0A09093C78736C3A617474726962757465206E616D653D227B6E616D6528297D223E3C78736C3A76616C75652D6F662073656C6563743D222E222F3E3C2F78736C3A6174747269627574653E0D0A093C2F78736C3A74656D706C6174653E0D0A0D 
LANSA     JQMOBILE  tsp_lansa_jqmobile_webletbuilder.xsl              00000000120000200000000000A093C78736C3A74656D706C617465206D617463683D2274736D6C3A6E65772D7765626C65745B6E6F7428406C61796F75742D7765626C6574295D223E0D0A09093C78736C743A696D706F727420687265663D227374645F74797065732E78736C222F3E0D0A09093C78736C743A6F7574707574206D6574686F643D22786D6C22206F6D69742D786D6C2D6465636C61726174696F6E3D227965732220656E636F64696E673D225554462D382220696E64656E743D226E6F22202F3E0D0A09093C77643A646566696E6974696F6E3E0D0A0909093C77643A67726F7570206E616D653D227B24636F6E746578742F74736D6C3A7765626C65742D 
LANSA     JQMOBILE  tsp_lansa_jqmobile_webletbuilder.xsl              000000001300001000000100067726F75707D22202F3E0D0A0909093C77643A7573652D64657369676E2D6C61796F75742F3E0D0A09093C2F77643A646566696E6974696F6E3E0D0A09093C77643A74656D706C617465206E616D653D227B247765626C65746E616D657D223E0D0A0909093C77643A6465736372697074696F6E2069636F6E3D2269636F6E732F7765626C65742E69636F223E0D0A090909093C77643A6E616D65206C616E673D227B24636F6E746578742F74736D6C3A6C616E67756167657D223E3C78736C3A76616C75652D6F662073656C6563743D22247765626C65742F74736D6C3A7469746C65222F3E3C2F77643A6E616D653E0D0A0909093C2F7764 
LANSA     JQMOBILE  tsp_lansa_jqmobile_webletbuilder.xsl              00000000130000200000000003A6465736372697074696F6E3E0D0A09093C2F77643A74656D706C6174653E0D0A09093C78736C3A63616C6C2D74656D706C617465206E616D653D22626C616E6B5F6C696E65222F3E0D0A09093C78736C743A74656D706C617465206E616D653D227B247765626C65746E616D657D223E0D0A0909093C78736C3A636F6D6D656E743E20416464205765626C657420636F6E74656E742068657265203C2F78736C3A636F6D6D656E743E0D0A09093C2F78736C743A74656D706C6174653E0D0A093C2F78736C3A74656D706C6174653E0D0A0D0A093C78736C3A74656D706C617465206D617463683D2274736D6C3A6E65772D7765626C65745B 
LANSA     JQMOBILE  tsp_lansa_jqmobile_webletbuilder.xsl              0000000014000010000001000406C61796F75742D7765626C6574203D202774727565275D223E0D0A09093C78736C3A636F6D6D656E743E205374616E6461726420696D706F7274732020202020202020202020202020202020202020202020202020202020202020202020202020203C2F78736C3A636F6D6D656E743E0D0A09093C78736C3A636F6D6D656E743E20496D706F727420746865207765626C65742058534C2066696C6573207573656420627920796F7572206C61796F757420686572652020203C2F78736C3A636F6D6D656E743E0D0A09093C78736C3A636F6D6D656E743E20652E672E20202020202020202020202020202020202020202020202020202020 
LANSA     JQMOBILE  tsp_lansa_jqmobile_webletbuilder.xsl              000000001400002000000000020202020202020202020202020202020202020202020203C2F78736C3A636F6D6D656E743E0D0A09093C78736C743A696D706F727420687265663D227374645F7661726961626C65732E78736C22202F3E0D0A09093C78736C743A696D706F727420687265663D227374645F74797065732E78736C22202F3E0D0A09093C78736C743A696D706F727420687265663D227374645F7374796C655F76322E78736C22202F3E0D0A09093C78736C743A696D706F727420687265663D227374645F7363726970742E78736C22202F3E0D0A09093C78736C743A696D706F727420687265663D227374645F68696464656E2E78736C22202F3E0D0A0909 
LANSA     JQMOBILE  tsp_lansa_jqmobile_webletbuilder.xsl              00000000150000100000010003C78736C743A696D706F727420687265663D227374645F6D657373616765732E78736C22202F3E0D0A09093C78736C743A6F7574707574206D6574686F643D22786D6C22206F6D69742D786D6C2D6465636C61726174696F6E3D227965732220656E636F64696E673D225554462D382220696E64656E743D226E6F2220646F63747970652D73797374656D3D2261626F75743A6C65676163792D636F6D70617422202F3E0D0A09093C78736C3A63616C6C2D74656D706C617465206E616D653D22626C616E6B5F6C696E65222F3E0D0A09093C77643A646566696E6974696F6E3E0D0A0909093C77643A67726F7570206E616D653D227B24636F 
LANSA     JQMOBILE  tsp_lansa_jqmobile_webletbuilder.xsl              00000000150000200000000006E746578742F74736D6C3A7765626C65742D67726F75707D22202F3E0D0A09093C2F77643A646566696E6974696F6E3E0D0A09093C78736C3A63616C6C2D74656D706C617465206E616D653D22626C616E6B5F6C696E65222F3E0D0A09093C77643A74656D706C617465206E616D653D227B247765626C65746E616D657D223E0D0A0909093C77643A6465736372697074696F6E2069636F6E3D2269636F6E732F7374645F6C61796F75742E69636F223E0D0A090909093C77643A6E616D65206C616E673D227B24636F6E746578742F74736D6C3A6C616E67756167657D223E3C78736C3A76616C75652D6F662073656C6563743D2224776562 
LANSA     JQMOBILE  tsp_lansa_jqmobile_webletbuilder.xsl              00000000160000100000010006C65742F74736D6C3A7469746C65222F3E3C2F77643A6E616D653E0D0A0909093C2F77643A6465736372697074696F6E3E0D0A09093C2F77643A74656D706C6174653E0D0A090D0A09093C78736C3A63616C6C2D74656D706C617465206E616D653D22626C616E6B5F6C696E65222F3E0D0A09093C78736C743A74656D706C617465206E616D653D227B247765626C65746E616D657D222077643A726F6C653D227374643A6C61796F7574223E0D0A0909093C78736C743A706172616D206E616D653D226164644261636B427574746F6E222073656C6563743D2266616C73652829222077643A747970653D227374643A626F6F6C65616E2220 
LANSA     JQMOBILE  tsp_lansa_jqmobile_webletbuilder.xsl              00000000160000200000000002F3E0D0A0909093C78736C743A706172616D206E616D653D226261636B427574746F6E537761746368222077643A747970653D227374643A6A716D5F7468656D6522202F3E0D0A0909093C78736C743A706172616D206E616D653D226261636B427574746F6E54657874222073656C6563743D22272722202F3E0D0A0909093C78736C743A706172616D206E616D653D22666F6F74657246756C6C73637265656E4D6F6465222073656C6563743D2266616C73652829222077643A747970653D227374643A626F6F6C65616E222077643A7469705F69643D2266756C6C73637265656E4D6F646522202F3E0D0A0909093C78736C743A70617261 
LANSA     JQMOBILE  tsp_lansa_jqmobile_webletbuilder.xsl              00000000170000100000010006D206E616D653D22666F6F746572506F736974696F6E222073656C6563743D222727222077643A747970653D227374643A6A716D5F746F6F6C6261725F706F736974696F6E222077643A7469705F69643D22746F6F6C626172506F736974696F6E22202F3E0D0A0909093C78736C743A706172616D206E616D653D22666F6F746572537761746368222073656C6563743D222727222077643A747970653D227374643A6A716D5F7468656D6522202F3E0D0A0909093C78736C743A706172616D206E616D653D2268656164657246756C6C73637265656E4D6F6465222073656C6563743D2266616C73652829222077643A747970653D22737464 
LANSA     JQMOBILE  tsp_lansa_jqmobile_webletbuilder.xsl              00000000170000200000000003A626F6F6C65616E222077643A7469705F69643D2266756C6C73637265656E4D6F646522202F3E0D0A0909093C78736C743A706172616D206E616D653D22686561646572506F736974696F6E222073656C6563743D222727222077643A747970653D227374643A6A716D5F746F6F6C6261725F706F736974696F6E222077643A7469705F69643D22746F6F6C626172506F736974696F6E22202F3E0D0A0909093C78736C743A706172616D206E616D653D22686561646572537761746368222073656C6563743D222727222077643A747970653D227374643A6A716D5F7468656D6522202F3E0D0A0909093C78736C743A706172616D206E616D 
LANSA     JQMOBILE  tsp_lansa_jqmobile_webletbuilder.xsl              0000000018000010000001000653D2270616765537761746368222073656C6563743D222727222077643A747970653D227374643A6A716D5F7468656D6522202F3E0D0A0909093C78736C743A706172616D206E616D653D2270657273697374656E74466F6F746572496422202F3E0D0A0909093C78736C743A706172616D206E616D653D2273686F77466F6F746572222073656C6563743D22747275652829222077643A747970653D227374643A626F6F6C65616E22202F3E0D0A0909093C78736C743A706172616D206E616D653D2273686F77486561646572222073656C6563743D22747275652829222077643A747970653D227374643A626F6F6C65616E22202F3E0D0A 
LANSA     JQMOBILE  tsp_lansa_jqmobile_webletbuilder.xsl              00000000180000200000000000909093C78736C743A706172616D206E616D653D2273686F774D65737361676573222073656C6563743D22747275652829222077643A747970653D227374643A626F6F6C65616E22202F3E0D0A0909093C78736C743A706172616D206E616D653D2276616C69646174696F6E4572726F72446973706C6179222073656C6563743D222727222077643A747970653D227374643A76616C69646174696F6E5F6572726F725F646973706C617922202F3E0D0A0909093C78736C743A706172616D206E616D653D2276616C69646174696F6E54696D65222073656C6563743D222727222077643A747970653D227374643A76616C69646174696F6E5F 
LANSA     JQMOBILE  tsp_lansa_jqmobile_webletbuilder.xsl              000000001900001000000100074696D6522202F3E0D0A0909093C78736C743A706172616D206E616D653D2277696E646F775469746C65222073656C6563743D22246C7765625F636F6E746578742F6C786D6C3A776562726F7574696E652D7469746C6522202F3E0D0A0909093C78736C3A63616C6C2D74656D706C617465206E616D653D22626C616E6B5F6C696E65222F3E0D0A0909093C68746D6C3E0D0A090909093C78736C743A696620746573743D22246C7765625F49534F5F6C616E677561676520213D202727223E0D0A09090909093C78736C743A617474726962757465206E616D653D226C616E67223E3C78736C743A76616C75652D6F662073656C6563743D22 
LANSA     JQMOBILE  tsp_lansa_jqmobile_webletbuilder.xsl              0000000019000020000000000246C7765625F49534F5F6C616E677561676522202F3E3C2F78736C743A6174747269627574653E0D0A090909093C2F78736C743A69663E0D0A090909093C686561643E0D0A09090909093C78736C743A696620746573743D226E6F7428246C7765625F64657369676E5F6D6F646529223E0D0A0909090909093C7469746C653E3C78736C743A76616C75652D6F662073656C6563743D222477696E646F775469746C6522202F3E3C2F7469746C653E0D0A09090909093C2F78736C743A69663E0D0A09090909093C6D657461206E616D653D2276696577706F72742220636F6E74656E743D2277696474683A6465766963652D77696474682C20 
LANSA     JQMOBILE  tsp_lansa_jqmobile_webletbuilder.xsl              0000000020000010000001000696E697469616C2D7363616C653D3122202F3E0D0A09090909093C78736C743A63616C6C2D74656D706C617465206E616D653D227374796C6522202F3E0D0A09090909093C78736C743A63616C6C2D74656D706C617465206E616D653D2273637269707422202F3E0D0A09090909093C7374796C6520747970653D22746578742F637373223E0D0A0909090909093C78736C743A746578742064697361626C652D6F75747075742D6573636170696E673D22796573223E2F2A20266C743B215B43444154415B202A2F0D0A3C2F78736C743A746578743E0D0A090909090909093C78736C743A6170706C792D74656D706C617465732073656C65 
LANSA     JQMOBILE  tsp_lansa_jqmobile_webletbuilder.xsl              000000002000002000000000063743D222A22206D6F64653D22636F6E74656E742E7374796C6522202F3E0D0A0909090909093C78736C743A746578742064697361626C652D6F75747075742D6573636170696E673D22796573223E0D0A2F2A205D5D2667743B202A2F3C2F78736C743A746578743E0D0A09090909093C2F7374796C653E0D0A09090909093C73637269707420747970653D22746578742F6A617661736372697074223E0D0A0909090909093C78736C743A746578742064697361626C652D6F75747075742D6573636170696E673D22796573223E2F2F266C743B215B43444154415B0D0A3C2F78736C743A746578743E0D0A090909090909093C78736C743A 
LANSA     JQMOBILE  tsp_lansa_jqmobile_webletbuilder.xsl              00000000210000100000010006170706C792D74656D706C617465732073656C6563743D222A22206D6F64653D22636F6E74656E742E73637269707422202F3E0D0A0909090909093C78736C743A746578742064697361626C652D6F75747075742D6573636170696E673D22796573223E0D0A2F2F5D5D2667743B3C2F78736C743A746578743E0D0A09090909093C2F7363726970743E0D0A090909093C2F686561643E0D0A090909093C626F647920636C6173733D226C7374642D7374644C61796F7574223E0D0A09090909093C64697620646174612D726F6C653D2270616765223E0D0A0909090909093C78736C743A617474726962757465206E616D653D22636C617373 
LANSA     JQMOBILE  tsp_lansa_jqmobile_webletbuilder.xsl              0000000021000020000000000223E0D0A090909090909093C78736C743A696620746573743D222476616C69646174696F6E4572726F72446973706C6179223E3C78736C743A76616C75652D6F662073656C6563743D22636F6E636174282720272C2476616C69646174696F6E4572726F72446973706C61792922202F3E3C2F78736C743A69663E0D0A090909090909093C78736C743A696620746573743D222476616C69646174696F6E54696D65223E3C78736C743A76616C75652D6F662073656C6563743D22636F6E636174282720272C2476616C69646174696F6E54696D652922202F3E3C2F78736C743A69663E0D0A0909090909093C2F78736C743A61747472696275 
LANSA     JQMOBILE  tsp_lansa_jqmobile_webletbuilder.xsl              000000002200001000000100074653E0D0A0909090909093C78736C743A696620746573743D22247061676553776174636820213D202727223E0D0A090909090909093C78736C743A617474726962757465206E616D653D22646174612D7468656D65223E3C78736C743A76616C75652D6F662073656C6563743D22247061676553776174636822202F3E3C2F78736C743A6174747269627574653E0D0A0909090909093C2F78736C743A69663E0D0A0909090909093C78736C743A63616C6C2D74656D706C617465206E616D653D227374796C652E626F64792D746F7022202F3E0D0A0909090909093C78736C743A63616C6C2D74656D706C617465206E616D653D22736372 
LANSA     JQMOBILE  tsp_lansa_jqmobile_webletbuilder.xsl              00000000220000200000000006970742E626F64792D746F7022202F3E0D0A0909090909093C666F726D206D6574686F643D22706F737422206E616D653D224C414E5341222069643D227B7B246C7765625F57524E616D657D7D5F666F726D220D0A09090909090909616374696F6E3D227B7B246C7765625F636F6E746578742F6C786D6C3A616374696F6E2D726571756573747D7D3F77616D3D7B7B246C7765625F57414D4E616D657D7D26616D703B77656272746E3D7B7B246C7765625F57524E616D657D7D26616D703B6D6C3D7B7B246C7765625F636F6E746578742F6C786D6C3A746563686E6F6C6F67792D736572766963657D7D26616D703B706172743D7B7B246C 
LANSA     JQMOBILE  tsp_lansa_jqmobile_webletbuilder.xsl              00000000230000100000010007765625F636F6E746578742F6C786D6C3A706172746974696F6E7D7D26616D703B6C616E673D7B7B246C7765625F636F6E746578742F6C786D6C3A6C616E67756167657D7D223E0D0A0D0A090909090909093C78736C743A696620746573743D222473686F77486561646572223E0D0A09090909090909093C64697620646174612D726F6C653D226865616465722220726F6C653D2262616E6E6572222077643A636F6E74656E743D22636F6E74656E742E686561646572223E0D0A0909090909090909093C78736C743A696620746573743D2224686561646572537761746368223E0D0A090909090909090909093C78736C743A6174747269 
LANSA     JQMOBILE  tsp_lansa_jqmobile_webletbuilder.xsl              000000002300002000000000062757465206E616D653D22646174612D7468656D65223E0D0A09090909090909090909093C78736C743A76616C75652D6F662073656C6563743D222468656164657253776174636822202F3E0D0A090909090909090909093C2F78736C743A6174747269627574653E0D0A0909090909090909093C2F78736C743A69663E0D0A0909090909090909093C78736C743A696620746573743D2224686561646572506F736974696F6E203D2027666978656427223E0D0A090909090909090909093C78736C743A617474726962757465206E616D653D22646174612D706F736974696F6E223E66697865643C2F78736C743A6174747269627574653E 
LANSA     JQMOBILE  tsp_lansa_jqmobile_webletbuilder.xsl              00000000240000100000010000D0A090909090909090909093C78736C743A696620746573743D222468656164657246756C6C73637265656E4D6F6465223E0D0A09090909090909090909093C78736C743A617474726962757465206E616D653D22646174612D66756C6C73637265656E223E747275653C2F78736C743A6174747269627574653E0D0A090909090909090909093C2F78736C743A69663E0D0A0909090909090909093C2F78736C743A69663E0D0A0909090909090909093C78736C743A696620746573743D22246164644261636B427574746F6E223E0D0A090909090909090909093C78736C743A617474726962757465206E616D653D22646174612D616464 
LANSA     JQMOBILE  tsp_lansa_jqmobile_webletbuilder.xsl              00000000240000200000000002D6261636B2D62746E223E747275653C2F78736C743A6174747269627574653E0D0A090909090909090909093C78736C743A696620746573743D22246261636B427574746F6E5465787420213D202727223E0D0A09090909090909090909093C78736C743A617474726962757465206E616D653D22646174612D6261636B2D62746E2D74657874223E3C78736C743A76616C75652D6F662073656C6563743D22246261636B427574746F6E5465787422202F3E3C2F78736C743A6174747269627574653E0D0A090909090909090909093C2F78736C743A69663E0D0A090909090909090909093C78736C743A696620746573743D22246261636B 
LANSA     JQMOBILE  tsp_lansa_jqmobile_webletbuilder.xsl              0000000025000010000001000427574746F6E53776174636820213D202727223E0D0A09090909090909090909093C78736C743A617474726962757465206E616D653D22646174612D6261636B2D62746E2D7468656D65223E3C78736C743A76616C75652D6F662073656C6563743D22246261636B427574746F6E53776174636822202F3E3C2F78736C743A6174747269627574653E0D0A090909090909090909093C2F78736C743A69663E0D0A0909090909090909093C2F78736C743A69663E0D0A0909090909090909093C78736C743A696620746573743D22246C7765625F64657369676E5F6D6F6465223E0D0A090909090909090909093C78736C743A61747472696275 
LANSA     JQMOBILE  tsp_lansa_jqmobile_webletbuilder.xsl              00000000250000200000000007465206E616D653D22636C617373223E64657369676E5F6F6E6C795F636F6E74656E745F617265613C2F78736C743A6174747269627574653E0D0A0909090909090909093C2F78736C743A69663E0D0A0909090909090909093C78736C743A6170706C792D74656D706C617465732073656C6563743D222A22206D6F64653D22636F6E74656E742E68656164657222202F3E0D0A09090909090909093C2F6469763E0D0A090909090909093C2F78736C743A69663E0D0A090909090909093C64697620636C6173733D2275692D636F6E74656E742220726F6C653D226D61696E222077643A636F6E74656E743D22636F6E74656E74223E0D0A09 
LANSA     JQMOBILE  tsp_lansa_jqmobile_webletbuilder.xsl              0000000026000010000001000090909090909093C78736C743A696620746573743D22246C7765625F64657369676E5F6D6F6465223E0D0A0909090909090909093C78736C743A617474726962757465206E616D653D22636C617373223E75692D636F6E74656E742064657369676E5F6F6E6C795F636F6E74656E745F617265613C2F78736C743A6174747269627574653E0D0A09090909090909093C2F78736C743A69663E0D0A09090909090909093C78736C743A696620746573743D222473686F774D65737361676573223E0D0A0909090909090909093C78736C743A63616C6C2D74656D706C617465206E616D653D226D6573736167657322202F3E0D0A090909090909 
LANSA     JQMOBILE  tsp_lansa_jqmobile_webletbuilder.xsl              000000002600002000000000009093C2F78736C743A69663E0D0A09090909090909093C78736C743A6170706C792D74656D706C617465732073656C6563743D222A22202F3E0D0A090909090909093C2F6469763E0D0A090909090909093C78736C743A63616C6C2D74656D706C617465206E616D653D2268696464656E5F6669656C647322202F3E0D0A090909090909093C78736C743A696620746573743D222473686F77466F6F746572223E0D0A09090909090909093C64697620646174612D726F6C653D22666F6F746572222077643A636F6E74656E743D22636F6E74656E742E666F6F746572223E0D0A0909090909090909093C78736C743A696620746573743D2224 
LANSA     JQMOBILE  tsp_lansa_jqmobile_webletbuilder.xsl              0000000027000010000001000666F6F746572537761746368223E0D0A090909090909090909093C78736C743A617474726962757465206E616D653D22646174612D7468656D65223E0D0A09090909090909090909093C78736C743A76616C75652D6F662073656C6563743D2224666F6F74657253776174636822202F3E0D0A090909090909090909093C2F78736C743A6174747269627574653E0D0A0909090909090909093C2F78736C743A69663E0D0A0909090909090909093C78736C743A696620746573743D2224666F6F746572506F736974696F6E203D2027666978656427223E0D0A090909090909090909093C78736C743A617474726962757465206E616D653D22 
LANSA     JQMOBILE  tsp_lansa_jqmobile_webletbuilder.xsl              0000000027000020000000000646174612D706F736974696F6E223E66697865643C2F78736C743A6174747269627574653E0D0A090909090909090909093C78736C743A696620746573743D2224666F6F74657246756C6C73637265656E4D6F6465223E0D0A09090909090909090909093C78736C743A617474726962757465206E616D653D22646174612D66756C6C73637265656E223E747275653C2F78736C743A6174747269627574653E0D0A090909090909090909093C2F78736C743A69663E0D0A0909090909090909093C2F78736C743A69663E0D0A0909090909090909093C78736C743A696620746573743D222470657273697374656E74466F6F7465724964223E 
LANSA     JQMOBILE  tsp_lansa_jqmobile_webletbuilder.xsl              00000000280000100000010000D0A090909090909090909093C78736C743A617474726962757465206E616D653D22646174612D6964223E0D0A09090909090909090909093C78736C743A76616C75652D6F662073656C6563743D222470657273697374656E74466F6F746572496422202F3E0D0A090909090909090909093C2F78736C743A6174747269627574653E0D0A0909090909090909093C2F78736C743A69663E0D0A0909090909090909093C78736C743A696620746573743D22246C7765625F64657369676E5F6D6F6465223E0D0A090909090909090909093C78736C743A617474726962757465206E616D653D22636C617373223E64657369676E5F6F6E6C795F 
LANSA     JQMOBILE  tsp_lansa_jqmobile_webletbuilder.xsl              0000000028000020000000000636F6E74656E745F617265613C2F78736C743A6174747269627574653E0D0A0909090909090909093C2F78736C743A69663E0D0A0909090909090909093C78736C743A6170706C792D74656D706C617465732073656C6563743D222A22206D6F64653D22636F6E74656E742E666F6F74657222202F3E0D0A09090909090909093C2F6469763E0D0A090909090909093C2F78736C743A69663E0D0A0909090909093C2F666F726D3E0D0A0909090909093C78736C743A63616C6C2D74656D706C617465206E616D653D227363726970744174456E6422202F3E0D0A0909090909093C78736C743A696620746573743D22246C7765625F64657369 
LANSA     JQMOBILE  tsp_lansa_jqmobile_webletbuilder.xsl              0000000029000010000001000676E5F6D6F6465223E0D0A090909090909093C78736C743A63616C6C2D74656D706C617465206E616D653D2268696464656E5F636F6E74656E745F64657369676E2E7072697661746522202F3E0D0A0909090909093C2F78736C743A69663E0D0A09090909093C2F6469763E0D0A090909093C2F626F64793E0D0A0909093C2F68746D6C3E0D0A09093C2F78736C743A74656D706C6174653E0D0A0D0A09093C78736C3A63616C6C2D74656D706C617465206E616D653D22626C616E6B5F6C696E65222F3E0D0A09093C78736C743A74656D706C617465206D617463683D222F6C786D6C3A6461746122206D6F64653D22636F6E74656E742E68 
LANSA     JQMOBILE  tsp_lansa_jqmobile_webletbuilder.xsl              00000000290000200000000006561646572223E0D0A0909093C68313E3C78736C743A76616C75652D6F662073656C6563743D222F6C786D6C3A646174612F6C786D6C3A636F6E746578742F6C786D6C3A776562726F7574696E652D7469746C6522202F3E3C2F68313E0D0A09093C2F78736C743A74656D706C6174653E0D0A0D0A09093C78736C743A74656D706C617465206D617463683D222F6C786D6C3A6461746122206D6F64653D22636F6E74656E742E666F6F746572223E0D0A0909093C78736C3A636F6D6D656E743E20466F6F746572203C2F78736C3A636F6D6D656E743E0D0A466F6F7465720D0A3C78736C3A746578742F3E0D0A09093C2F78736C743A74656D 
LANSA     JQMOBILE  tsp_lansa_jqmobile_webletbuilder.xsl              0000000030000010000001000706C6174653E0D0A0D0A09093C78736C3A63616C6C2D74656D706C617465206E616D653D22626C616E6B5F6C696E65222F3E0D0A09093C78736C743A74656D706C617465206D617463683D222F6C786D6C3A6461746122206D6F64653D22636F6E74656E742E68696464656E223E0D0A0909093C78736C743A636F6D6D656E743E2048696464656E20436F6E74656E74203C2F78736C743A636F6D6D656E743E0D0A09093C2F78736C743A74656D706C6174653E0D0A0D0A09093C78736C3A63616C6C2D74656D706C617465206E616D653D22626C616E6B5F6C696E65222F3E0D0A09093C78736C743A74656D706C617465206D617463683D22 
LANSA     JQMOBILE  tsp_lansa_jqmobile_webletbuilder.xsl              00000000300000200000000002F6C786D6C3A6461746122206D6F64653D22636F6E74656E742E7374796C65223E0D0A0909093C78736C3A636F6D6D656E743E205374796C65203C2F78736C3A636F6D6D656E743E0D0A09093C2F78736C743A74656D706C6174653E0D0A0D0A09093C78736C3A63616C6C2D74656D706C617465206E616D653D22626C616E6B5F6C696E65222F3E0D0A09093C78736C743A74656D706C617465206D617463683D222F6C786D6C3A6461746122206D6F64653D22636F6E74656E742E736372697074223E0D0A0909093C78736C3A636F6D6D656E743E20536372697074203C2F78736C3A636F6D6D656E743E0D0A09093C2F78736C743A74656D 
LANSA     JQMOBILE  tsp_lansa_jqmobile_webletbuilder.xsl              0000000031000010000000516706C6174653E0D0A093C2F78736C3A74656D706C6174653E0D0A0D0A093C212D2D2049676E6F7261626C6520656C656D656E7473202D2D3E0D0A093C78736C3A74656D706C617465206D617463683D2274736D6C3A7265706C616365642D6C786D6C223E0D0A093C2F78736C3A74656D706C6174653E0D0A0D0A093C78736C3A74656D706C617465206D617463683D2274736D6C3A7765626C657473223E0D0A093C2F78736C3A74656D706C6174653E0D0A0D0A093C78736C3A74656D706C617465206D617463683D2274736D6C3A6C786D6C2D64617461223E0D0A093C2F78736C3A74656D706C6174653E0D0A0D0A3C2F78736C3A7472616E 
LANSA     JQMOBILE  tsp_lansa_jqmobile_webletbuilder.xsl              000000003100002000000000073666F726D3E0D0A                                                                                                                                                                                                                                                                                                                                                                                                                                                                                                     
LANSA     JQMOBILE  tsp_lansa_jqmobile_webroutine.xsl                 00000000010000100000010003C3F786D6C2076657273696F6E3D22312E302220656E636F64696E673D225554462D38223F3E0D0A0D0A3C212D2D2028632920323031322C2032303134204C414E53412020202020202020202020202020202020202020202020202020202020202020202D2D3E0D0A3C212D2D206A714D6F62696C6520576562726F7574696E65205374796C657368656574204275696C6465722020202020202020202020202020202D2D3E0D0A3C212D2D2024576F726B66696C653A3A207473705F6C616E73615F6A716D6F62696C655F776562726F7574696E652E78736C20202020202024202D2D3E0D0A3C212D2D20245265766973696F6E3A3A203339 
LANSA     JQMOBILE  tsp_lansa_jqmobile_webroutine.xsl                 00000000010000200000000002020202020202020202020202020202020202020202020202020202020202020202020202024202D2D3E0D0A0D0A3C78736C3A7472616E73666F726D2076657273696F6E3D22312E302220786D6C6E733A78736C3D22687474703A2F2F7777772E77332E6F72672F313939392F58534C2F5472616E73666F726D2220786D6C6E733A78736C743D22687474703A2F2F7777772E6C616E73612E636F6D2F323030322F58534C2F5472616E73666F726D2D416C6961732220786D6C6E733A6C786D6C3D22687474703A2F2F7777772E6C616E73612E636F6D2F323030322F584D4C2F52756E74696D652D44617461220D0A0909090909786D6C6E73 
LANSA     JQMOBILE  tsp_lansa_jqmobile_webroutine.xsl                 00000000020000100000010003A74736D6C3D22687474703A2F2F7777772E6C616E73612E636F6D2F323030322F584D4C2F47656E65726174696F6E2D4D65746164617461220D0A0909090909786D6C6E733A77643D22687474703A2F2F7777772E6C616E73612E636F6D2F323030322F58534C2F5765626C65742D44657369676E220D0A0909090909786D6C6E733D22687474703A2F2F7777772E77332E6F72672F313939392F7868746D6C22206578636C7564652D726573756C742D70726566697865733D2274736D6C2078736C74223E0D0A0D0A093C78736C3A696D706F727420687265663D227473705F676C6F62616C5F68656C7065722E78736C222F3E0D0A0D0A09 
LANSA     JQMOBILE  tsp_lansa_jqmobile_webroutine.xsl                 00000000020000200000000003C212D2D20546F70206C6576656C20706172616D65746572207573656420627920746865205765626C657420696E6C696E657220746F20696E64696361746520746869732069732061207765626C657420696E6C696E696E67207472616E73666F726D6174696F6E202D2D3E0D0A093C78736C3A706172616D206E616D653D22675F696E6C696E65725F63616C6C222073656C6563743D2266616C73652829222F3E0D0A0D0A093C212D2D2058534C20696D706F72742070617468202D2D3E0D0A093C78736C3A706172616D206E616D653D22675F696D706F72745F70617468222073656C6563743D222727222F3E0D0A0D0A093C78736C3A6F 
LANSA     JQMOBILE  tsp_lansa_jqmobile_webroutine.xsl                 00000000030000100000010007574707574206D6574686F643D22786D6C22206F6D69742D786D6C2D6465636C61726174696F6E3D226E6F2220656E636F64696E673D225554462D382220696E64656E743D22796573222F3E0D0A0D0A093C78736C3A6E616D6573706163652D616C696173207374796C6573686565742D7072656669783D2278736C742220726573756C742D7072656669783D2278736C222F3E0D0A0D0A093C78736C3A6B6579206E616D653D226F7074696F6E22206D617463683D222F74736D6C3A646174612F74736D6C3A6F7074696F6E732F74736D6C3A6F7074696F6E22207573653D22406E616D65222F3E0D0A093C78736C3A6B6579206E616D653D 
LANSA     JQMOBILE  tsp_lansa_jqmobile_webroutine.xsl                 0000000003000020000000000227765626C657422206D617463683D222F74736D6C3A646174612F74736D6C3A7765626C6574732F74736D6C3A7765626C6574207C202F2A2F74736D6C3A646174612F74736D6C3A7765626C6574732F74736D6C3A7765626C657422207573653D22406E616D65222F3E0D0A093C78736C3A6B6579206E616D653D227069636B6C69737422206D617463683D222F74736D6C3A646174612F74736D6C3A6C786D6C2D646174612F6C786D6C3A7069636B6C697374207C202F2A2F74736D6C3A646174612F74736D6C3A6C786D6C2D646174612F6C786D6C3A7069636B6C69737422207573653D22406669656C642D726566222F3E0D0A093C7873 
LANSA     JQMOBILE  tsp_lansa_jqmobile_webroutine.xsl                 00000000040000100000010006C3A6B6579206E616D653D226669656C645F7573655F7765626C657422206D617463683D222F74736D6C3A646174612F74736D6C3A6669656C64732F74736D6C3A6669656C642F74736D6C3A7573652D7765626C6574732F74736D6C3A7573652D7765626C65745B40746563686E6F6C6F67792D73657276696365203D20274C414E53413A4A514D4F42494C45275D207C202F2A2F74736D6C3A646174612F74736D6C3A6669656C64732F74736D6C3A6669656C642F74736D6C3A7573652D7765626C6574732F74736D6C3A7573652D7765626C65745B40746563686E6F6C6F67792D73657276696365203D20274C414E53413A4A514D4F4249 
LANSA     JQMOBILE  tsp_lansa_jqmobile_webroutine.xsl                 00000000040000200000000004C45275D220D0A090909097573653D222E2E2F2E2E2F406E616D65222F3E0D0A093C78736C3A6B6579206E616D653D22636F6C756D6E5F7573655F7765626C657422206D617463683D222F74736D6C3A646174612F74736D6C3A6C697374732F74736D6C3A6C6973742F74736D6C3A6C6973742D656E74726965732F74736D6C3A656E7472792F74736D6C3A636F6C756D6E2F74736D6C3A7573652D7765626C6574732F74736D6C3A7573652D7765626C65745B40746563686E6F6C6F67792D73657276696365203D20274C414E53413A4A514D4F42494C45275D207C202F2A2F74736D6C3A646174612F74736D6C3A6C697374732F74736D6C 
LANSA     JQMOBILE  tsp_lansa_jqmobile_webroutine.xsl                 00000000050000100000010003A6C6973742F74736D6C3A6C6973742D656E74726965732F74736D6C3A656E7472792F74736D6C3A636F6C756D6E2F74736D6C3A7573652D7765626C6574732F74736D6C3A7573652D7765626C65745B40746563686E6F6C6F67792D73657276696365203D20274C414E53413A4A514D4F42494C45275D220D0A09090909097573653D222E2E2F2E2E2F406E616D65222F3E0D0A0D0A093C212D2D2054534D4C206E616D6573706163652028666F722066696C746572696E6729202D2D3E0D0A093C78736C3A7661726961626C65206E616D653D2274736D6C5F6E73222073656C6563743D2227687474703A2F2F7777772E6C616E73612E636F 
LANSA     JQMOBILE  tsp_lansa_jqmobile_webroutine.xsl                 00000000050000200000000006D2F323030322F584D4C2F47656E65726174696F6E2D4D6574616461746127222F3E0D0A0D0A093C212D2D205468697320546563686E6F6C6F677920536572766963652773207175616C6966696564206E616D65202D2D3E0D0A093C78736C3A7661726961626C65206E616D653D227473705F716E616D65222073656C6563743D22274C414E53413A4A514D4F42494C4527222F3E0D0A0D0A093C212D2D205370656369616C20636861726163746572732028616E64207468656972207265706C6163656D656E742920746F206265206368616E67656420696E2078736C3A7661726961626C65206E616D6573202D2D3E0D0A093C78736C3A76 
LANSA     JQMOBILE  tsp_lansa_jqmobile_webroutine.xsl                 000000000600001000000100061726961626C65206E616D653D226E6D746F6B656E5F696E76616C69645F6368617273222073656C6563743D222740232427222F3E0D0A093C78736C3A7661726961626C65206E616D653D226E6D746F6B656E5F7265706C6163656D656E745F6368617273222073656C6563743D222761687327222F3E0D0A0D0A093C212D2D204D6178696D756D20646973706C61792073697A6520666F7220737472696E67206669656C6473202D2D3E0D0A093C78736C3A7661726961626C65206E616D653D22737472696E675F6D61785F646973706C61795F73697A65222073656C6563743D223630222F3E0D0A0D0A093C212D2D2057414D20496E6C69 
LANSA     JQMOBILE  tsp_lansa_jqmobile_webroutine.xsl                 00000000060000200000000006E696E67206F7074696F6E202D2D3E0D0A093C78736C3A7661726961626C65206E616D653D22675F696E6C696E655F616C6C222073656C6563743D222F74736D6C3A646174612F40696E6C696E65203D2027616C6C27222F3E0D0A093C78736C3A7661726961626C65206E616D653D22675F696E6C696E655F6C69737473222073656C6563743D2224675F696E6C696E655F616C6C206F7220282F74736D6C3A646174612F40696E6C696E65203D20276C697374732729222F3E0D0A0D0A093C78736C3A7661726961626C65206E616D653D2264656661756C745F6964222073656C6563743D22636F6E6361742827636F6E63617428246C7765 
LANSA     JQMOBILE  tsp_lansa_jqmobile_webroutine.xsl                 0000000007000010000001000625F57524E616D652C272C202461706F732C20275F272C202461706F732C20272C246E616D6529272922202F3E0D0A0D0A3C212D2D2044656661756C74205765626C6574202D2D3E0D0A3C74736D6C3A646566696E6974696F6E3E0D0A093C74736D6C3A64656661756C742D7765626C6574206E616D653D227374645F696E7075742E7374645F696E70757422202F3E0D0A3C2F74736D6C3A646566696E6974696F6E3E0D0A0D0A093C78736C3A74656D706C617465206D617463683D222F223E0D0A09093C78736C3A6170706C792D74656D706C617465732073656C6563743D222A222F3E0D0A093C2F78736C3A74656D706C6174653E0D0A 
LANSA     JQMOBILE  tsp_lansa_jqmobile_webroutine.xsl                 00000000070000200000000000D0A093C78736C3A74656D706C617465206D617463683D2274736D6C3A64617461223E0D0A09093C78736C3A6170706C792D74656D706C617465732073656C6563743D222A222F3E0D0A093C2F78736C3A74656D706C6174653E0D0A0D0A093C78736C3A74656D706C617465206D617463683D2274736D6C3A646174615B4066756C6C2D646F63756D656E74203D202774727565275D223E0D0A0D0A09093C78736C3A63616C6C2D74656D706C617465206E616D653D22626C616E6B5F6C696E65222F3E0D0A09093C78736C3A636F6D6D656E743E0D0A0909093C78736C3A746578743E2057414D202020202020203A203C2F78736C3A746578 
LANSA     JQMOBILE  tsp_lansa_jqmobile_webroutine.xsl                 0000000008000010000001000743E3C78736C3A76616C75652D6F662073656C6563743D2274736D6C3A636F6E746578742F74736D6C3A7765626170706C69636174696F6E2D616C742D6E616D65222F3E202D203C78736C3A76616C75652D6F662073656C6563743D2274736D6C3A636F6E746578742F74736D6C3A7765626170706C69636174696F6E2D7469746C65222F3E3C78736C3A63616C6C2D74656D706C617465206E616D653D22636F6D6D656E745F6E65775F6C696E65222F3E0D0A0909093C78736C3A746578743E20576562726F7574696E653A203C2F78736C3A746578743E3C78736C3A76616C75652D6F662073656C6563743D2274736D6C3A636F6E746578 
LANSA     JQMOBILE  tsp_lansa_jqmobile_webroutine.xsl                 0000000008000020000000000742F74736D6C3A776562726F7574696E65222F3E202D203C78736C3A76616C75652D6F662073656C6563743D2274736D6C3A636F6E746578742F74736D6C3A776562726F7574696E652D7469746C65222F3E3C78736C3A63616C6C2D74656D706C617465206E616D653D22636F6D6D656E745F6E65775F6C696E65222F3E0D0A0909093C78736C3A746578743E2054696D657374616D70203A203C2F78736C3A746578743E3C78736C3A76616C75652D6F662073656C6563743D2274736D6C3A636F6E746578742F74736D6C3A74696D657374616D70222F3E3C78736C3A746578743E203C2F78736C3A746578743E0D0A09093C2F78736C3A63 
LANSA     JQMOBILE  tsp_lansa_jqmobile_webroutine.xsl                 00000000090000100000010006F6D6D656E743E0D0A09093C78736C3A63616C6C2D74656D706C617465206E616D653D22626C616E6B5F6C696E65222F3E0D0A09093C78736C743A7472616E73666F726D2076657273696F6E3D22312E302220786D6C6E733A78736C3D22687474703A2F2F7777772E77332E6F72672F313939392F58534C2F5472616E73666F726D220D0A090909786D6C6E733A6C786D6C3D22687474703A2F2F7777772E6C616E73612E636F6D2F323030322F584D4C2F52756E74696D652D44617461220D0A090909786D6C6E733A77643D22687474703A2F2F7777772E6C616E73612E636F6D2F323030322F58534C2F5765626C65742D44657369676E22 
LANSA     JQMOBILE  tsp_lansa_jqmobile_webroutine.xsl                 0000000009000020000000000200D0A090909786D6C6E733D22687474703A2F2F7777772E77332E6F72672F313939392F7868746D6C220D0A0909096578636C7564652D726573756C742D70726566697865733D226C786D6C207764223E0D0A09093C78736C3A63616C6C2D74656D706C617465206E616D653D22626C616E6B5F6C696E65222F3E0D0A0D0A09093C212D2D205374616E6461726420696D706F727473202D2D3E0D0A09093C78736C743A696D706F727420687265663D227B24675F696D706F72745F706174687D7374645F6B6579732E78736C222F3E0D0A09093C78736C743A696D706F727420687265663D227B24675F696D706F72745F706174687D737464 
LANSA     JQMOBILE  tsp_lansa_jqmobile_webroutine.xsl                 00000000100000100000010005F7661726961626C65732E78736C222F3E0D0A09093C78736C743A696D706F727420687265663D227B24675F696D706F72745F706174687D7374645F68696464656E2E78736C222F3E0D0A09093C78736C743A696D706F727420687265663D227B636F6E6361742824675F696D706F72745F706174682C2074736D6C3A636F6E746578742F74736D6C3A6C61796F75742D6E616D652C20272E78736C27297D222F3E0D0A0D0A09093C212D2D205765626C657420696D706F727473202D2D3E0D0A09093C78736C3A63616C6C2D74656D706C617465206E616D653D227765626C65742D696D706F727473222F3E0D0A09093C78736C3A63616C6C 
LANSA     JQMOBILE  tsp_lansa_jqmobile_webroutine.xsl                 00000000100000200000000002D74656D706C617465206E616D653D22626C616E6B5F6C696E65222F3E0D0A0D0A09093C78736C743A6F7574707574206D6574686F643D22786D6C22206F6D69742D786D6C2D6465636C61726174696F6E3D227965732220656E636F64696E673D225554462D382220696E64656E743D226E6F222F3E0D0A09093C78736C3A63616C6C2D74656D706C617465206E616D653D22626C616E6B5F6C696E65222F3E0D0A0D0A09093C78736C3A6170706C792D74656D706C617465732073656C6563743D2274736D6C3A6C786D6C2D64617461222F3E0D0A0D0A09093C78736C743A74656D706C617465206D617463683D222F223E0D0A0909093C78 
LANSA     JQMOBILE  tsp_lansa_jqmobile_webroutine.xsl                 0000000011000010000001000736C743A63616C6C2D74656D706C617465206E616D653D226C61796F7574222F3E0D0A09093C2F78736C743A74656D706C6174653E0D0A0D0A09093C78736C3A63616C6C2D74656D706C617465206E616D653D22626C616E6B5F6C696E65222F3E0D0A0D0A09093C78736C743A74656D706C617465206D617463683D222F6C786D6C3A64617461223E0D0A0909093C78736C3A6170706C792D74656D706C617465732073656C6563743D222A5B6E6F742873656C663A3A74736D6C3A6C786D6C2D64617461295D222F3E0D0A09093C2F78736C743A74656D706C6174653E0D0A0D0A09093C212D2D204C6973742074656D706C61746573202D2D 
LANSA     JQMOBILE  tsp_lansa_jqmobile_webroutine.xsl                 00000000110000200000000003E0D0A09093C78736C3A6170706C792D74656D706C617465732073656C6563743D2274736D6C3A6C697374732F74736D6C3A6C69737422206D6F64653D2274656D706C6174655F646566696E6974696F6E222F3E0D0A09093C78736C3A63616C6C2D74656D706C617465206E616D653D22626C616E6B5F6C696E65222F3E0D0A0D0A09093C212D2D2048696464656E206669656C6473202D2D3E0D0A09093C78736C743A74656D706C617465206D617463683D222F6C786D6C3A6461746122206D6F64653D22636F6E74656E742E68696464656E223E0D0A0909093C78736C743A6170706C792D696D706F727473202F3E0D0A0909093C78736C 
LANSA     JQMOBILE  tsp_lansa_jqmobile_webroutine.xsl                 00000000120000100000010003A63616C6C2D74656D706C617465206E616D653D22626C616E6B5F6C696E65222F3E0D0A0909093C78736C3A6170706C792D74656D706C617465732073656C6563743D222F74736D6C3A646174612F74736D6C3A6669656C64732F74736D6C3A6669656C645B74736D6C3A6D6F6465203D202768696464656E275D222F3E0D0A0909093C78736C3A63616C6C2D74656D706C617465206E616D653D22626C616E6B5F6C696E65222F3E0D0A0909093C78736C3A6170706C792D74656D706C617465732073656C6563743D2274736D6C3A6C697374732F74736D6C3A6C6973745B74736D6C3A6D6F6465203D202768696464656E275D22206D6F64 
LANSA     JQMOBILE  tsp_lansa_jqmobile_webroutine.xsl                 0000000012000020000000000653D2274656D706C6174655F7265666572656E6365222F3E0D0A09093C2F78736C743A74656D706C6174653E0D0A09093C2F78736C743A7472616E73666F726D3E0D0A093C2F78736C3A74656D706C6174653E0D0A0D0A093C212D2D205765626C657420696D706F72747320284578636C75646573206475706C6963617465732E204E6F646520736574206D75737420626520736F7274656420696E20616C7068616265746963616C206F7264657229202D2D3E0D0A093C78736C3A74656D706C617465206D617463683D2274736D6C3A7765626C6574732F74736D6C3A7765626C657422206D6F64653D227765626C65745F696D706F727473 
LANSA     JQMOBILE  tsp_lansa_jqmobile_webroutine.xsl                 0000000013000010000001000223E0D0A09093C78736C3A7661726961626C65206E616D653D227765626C65745F6E616D65222073656C6563743D22737562737472696E672D6265666F726528406E616D652C20272E2729222F3E0D0A09093C78736C3A696620746573743D226E6F7428247765626C65745F6E616D65203D20737562737472696E672D6265666F726528707265636564696E672D7369626C696E673A3A74736D6C3A7765626C65745B706F736974696F6E28293D315D2F406E616D652C20272E272929223E0D0A0909093C78736C743A696D706F727420687265663D227B24675F696D706F72745F706174687D7B247765626C65745F6E616D657D2E78736C22 
LANSA     JQMOBILE  tsp_lansa_jqmobile_webroutine.xsl                 00000000130000200000000002F3E0D0A0909203C2F78736C3A69663E0D0A093C2F78736C3A74656D706C6174653E0D0A0D0A093C78736C3A74656D706C617465206D617463683D2274736D6C3A7265706C616365642D6C786D6C223E0D0A093C2F78736C3A74656D706C6174653E0D0A0D0A093C78736C3A74656D706C617465206D617463683D2274736D6C3A7365727665722D696E737472756374696F6E73223E0D0A093C2F78736C3A74656D706C6174653E0D0A0D0A093C78736C3A74656D706C617465206D617463683D2274736D6C3A636F6E74657874223E0D0A093C2F78736C3A74656D706C6174653E0D0A0D0A093C78736C3A74656D706C617465206D61746368 
LANSA     JQMOBILE  tsp_lansa_jqmobile_webroutine.xsl                 00000000140000100000010003D2274736D6C3A6F7074696F6E73223E0D0A093C2F78736C3A74656D706C6174653E0D0A0D0A093C78736C3A74656D706C617465206D617463683D2274736D6C3A6D65737361676573223E0D0A093C2F78736C3A74656D706C6174653E0D0A0D0A093C78736C3A74656D706C617465206D617463683D2274736D6C3A7661726961626C6573223E0D0A093C2F78736C3A74656D706C6174653E0D0A0D0A093C78736C3A74656D706C617465206D617463683D2274736D6C3A7765626C657473223E0D0A093C2F78736C3A74656D706C6174653E0D0A0D0A093C78736C3A74656D706C617465206D617463683D2274736D6C3A6C786D6C2D646174 
LANSA     JQMOBILE  tsp_lansa_jqmobile_webroutine.xsl                 000000001400002000000000061223E0D0A09093C78736C3A7661726961626C65206E616D653D227069636B6C697374436F756E74222073656C6563743D22636F756E74286C786D6C3A7069636B6C6973745B6B657928276669656C645F7573655F7765626C6574272C20406669656C642D72656629207C206B65792827636F6C756D6E5F7573655F7765626C6574272C20406669656C642D726566295D2922202F3E0D0A0D0A09093C212D2D20446F6E277420637265617465206C786D6C3A64617461206E6F6465206966206E6F207069636B6C697374206974656D732077696C6C20626520696E636C75646564202E2E2E202D2D3E0D0A09093C78736C3A69662074657374 
LANSA     JQMOBILE  tsp_lansa_jqmobile_webroutine.xsl                 00000000150000100000010003D22247069636B6C697374436F756E74203E2030223E0D0A0909093C6C786D6C3A646174613E0D0A090909093C78736C3A6170706C792D74656D706C617465732073656C6563743D222A222F3E0D0A0909093C2F6C786D6C3A646174613E0D0A0909093C78736C3A63616C6C2D74656D706C617465206E616D653D22626C616E6B5F6C696E65222F3E0D0A09093C2F78736C3A69663E0D0A093C2F78736C3A74656D706C6174653E0D0A0D0A093C78736C3A74656D706C617465206D617463683D226C786D6C3A7069636B6C697374223E0D0A09093C78736C3A696620746573743D226B657928276669656C645F7573655F7765626C6574272C 
LANSA     JQMOBILE  tsp_lansa_jqmobile_webroutine.xsl                 000000001500002000000000020406669656C642D72656629207C206B65792827636F6C756D6E5F7573655F7765626C6574272C20406669656C642D72656629223E0D0A0909093C6C786D6C3A7069636B6C6973743E0D0A090909093C78736C3A636F70792D6F662073656C6563743D22402A5B6E6F74286E616D652829203D20276669656C642D72656627295D222F3E0D0A090909093C78736C3A6170706C792D74656D706C617465732F3E0D0A0909093C2F6C786D6C3A7069636B6C6973743E0D0A0909093C78736C3A63616C6C2D74656D706C617465206E616D653D22626C616E6B5F6C696E65222F3E0D0A09093C2F78736C3A69663E0D0A093C2F78736C3A74656D70 
LANSA     JQMOBILE  tsp_lansa_jqmobile_webroutine.xsl                 00000000160000100000010006C6174653E0D0A0D0A093C212D2D206C786D6C20646174612069736C616E64206E6F6465732E2078736C3A636F7079206E6F74207573656420746F2061766F696420636F7079696E672074736D6C206E616D657370616365202D2D3E0D0A093C78736C3A74656D706C617465206D617463683D226C786D6C3A2A223E0D0A09093C78736C3A656C656D656E74206E616D653D227B6E616D6528297D223E0D0A0909093C78736C3A636F70792D6F662073656C6563743D22402A222F3E0D0A0909093C78736C3A6170706C792D74656D706C617465732F3E0D0A09093C2F78736C3A656C656D656E743E0D0A093C2F78736C3A74656D706C617465 
LANSA     JQMOBILE  tsp_lansa_jqmobile_webroutine.xsl                 00000000160000200000000003E0D0A0D0A093C78736C3A74656D706C617465206D617463683D2274736D6C3A6669656C6473223E0D0A09093C78736C3A6170706C792D74656D706C617465732073656C6563743D2274736D6C3A6669656C645B74736D6C3A6D6F646520213D202768696464656E275D222F3E0D0A093C2F78736C3A74656D706C6174653E0D0A0D0A093C212D2D2050726976617465206669656C64202D2D3E0D0A093C78736C3A74656D706C617465206D617463683D2274736D6C3A6669656C645B74736D6C3A6D6F6465203D202770726976617465275D223E0D0A093C2F78736C3A74656D706C6174653E0D0A0D0A093C212D2D2048696464656E206669 
LANSA     JQMOBILE  tsp_lansa_jqmobile_webroutine.xsl                 0000000017000010000001000656C64202D2D3E0D0A093C78736C3A74656D706C617465206D617463683D2274736D6C3A6669656C645B74736D6C3A6D6F6465203D202768696464656E275D223E0D0A09093C78736C3A63616C6C2D74656D706C617465206E616D653D226669656C645F76616C75655F64656661756C745F76697375616C697A6174696F6E223E0D0A0909093C78736C3A776974682D706172616D206E616D653D226669656C64222073656C6563743D222E222F3E0D0A09093C2F78736C3A63616C6C2D74656D706C6174653E0D0A093C2F78736C3A74656D706C6174653E0D0A0D0A093C212D2D20496E7075742C206F7574707574206F7220626F74682066 
LANSA     JQMOBILE  tsp_lansa_jqmobile_webroutine.xsl                 000000001700002000000000069656C64202D2D3E0D0A093C78736C3A74656D706C617465206D617463683D2274736D6C3A6669656C645B2874736D6C3A6D6F646520213D202768696464656E272920616E64202874736D6C3A6D6F646520213D20277072697661746527295D223E0D0A09093C78736C3A63616C6C2D74656D706C617465206E616D653D226669656C642D63617074696F6E223E0D0A0909093C78736C3A776974682D706172616D206E616D653D226669656C64222073656C6563743D222E222F3E0D0A09093C2F78736C3A63616C6C2D74656D706C6174653E0D0A09093C78736C3A63616C6C2D74656D706C617465206E616D653D226669656C642D76616C 
LANSA     JQMOBILE  tsp_lansa_jqmobile_webroutine.xsl                 00000000180000100000010007565223E0D0A0909093C78736C3A776974682D706172616D206E616D653D226669656C64222073656C6563743D222E222F3E0D0A09093C2F78736C3A63616C6C2D74656D706C6174653E0D0A09093C6272202F3E0D0A093C2F78736C3A74656D706C6174653E0D0A0D0A093C212D2D204669656C642063617074696F6E20666F7220456469746F72202D2D3E0D0A093C78736C3A74656D706C617465206D617463683D2274736D6C3A6669656C6422206D6F64653D2263617074696F6E5F6F6E6C79223E0D0A09093C78736C3A696620746573743D222874736D6C3A6D6F646520213D202768696464656E272920616E64202874736D6C3A6D6F 
LANSA     JQMOBILE  tsp_lansa_jqmobile_webroutine.xsl                 0000000018000020000000000646520213D2027707269766174652729223E0D0A0909093C78736C3A63616C6C2D74656D706C617465206E616D653D226669656C642D63617074696F6E223E0D0A090909093C78736C3A776974682D706172616D206E616D653D226669656C64222073656C6563743D222E222F3E0D0A0909093C2F78736C3A63616C6C2D74656D706C6174653E0D0A09093C2F78736C3A69663E0D0A093C2F78736C3A74656D706C6174653E0D0A0D0A093C212D2D204669656C642076616C756520666F7220456469746F72202D2D3E0D0A093C78736C3A74656D706C617465206D617463683D2274736D6C3A6669656C6422206D6F64653D2276616C75655F 
LANSA     JQMOBILE  tsp_lansa_jqmobile_webroutine.xsl                 00000000190000100000010006F6E6C79223E0D0A09093C78736C3A696620746573743D2274736D6C3A6D6F646520213D20277072697661746527223E0D0A0909093C78736C3A63616C6C2D74656D706C617465206E616D653D226669656C642D76616C7565223E0D0A090909093C78736C3A776974682D706172616D206E616D653D226669656C64222073656C6563743D222E222F3E0D0A0909093C2F78736C3A63616C6C2D74656D706C6174653E0D0A09093C2F78736C3A69663E0D0A093C2F78736C3A74656D706C6174653E0D0A0D0A093C78736C3A74656D706C617465206D617463683D2274736D6C3A6C69737473223E0D0A09093C78736C3A6170706C792D74656D 
LANSA     JQMOBILE  tsp_lansa_jqmobile_webroutine.xsl                 0000000019000020000000000706C617465732073656C6563743D2274736D6C3A6C6973745B74736D6C3A6D6F646520213D202768696464656E275D22206D6F64653D2274656D706C6174655F7265666572656E6365222F3E0D0A093C2F78736C3A74656D706C6174653E0D0A0D0A093C78736C3A74656D706C617465206D617463683D2274736D6C3A6A736F6E2D6C697374223E0D0A093C2F78736C3A74656D706C6174653E0D0A0D0A093C78736C3A74656D706C617465206D617463683D2274736D6C3A6C6973745B2874736D6C3A6D6F6465203D2027696E7075742729206F72202874736D6C3A6D6F6465203D20276F75747075742729206F72202874736D6C3A6D6F64 
LANSA     JQMOBILE  tsp_lansa_jqmobile_webroutine.xsl                 000000002000001000000100065203D2027626F746827295D22206D6F64653D2274656D706C6174655F7265666572656E6365223E0D0A09093C78736C743A6170706C792D74656D706C617465732073656C6563743D222F6C786D6C3A646174612F6C786D6C3A6C697374732F6C786D6C3A6C6973745B406E616D653D277B406E616D657D275D222077643A6C6973746E616D653D227B406E616D657D22203E0D0A090909093C78736C743A776974682D706172616D206E616D653D22636C617373222073656C6563743D22272722202F3E0D0A090909093C78736C743A776974682D706172616D206E616D653D22636F756E74537761746368222073656C6563743D22272722 
LANSA     JQMOBILE  tsp_lansa_jqmobile_webroutine.xsl                 0000000020000020000000000202F3E0D0A090909093C78736C743A776974682D706172616D206E616D653D2264697669646572537761746368222073656C6563743D22272722202F3E0D0A090909093C78736C743A776974682D706172616D206E616D653D2268617353656172636846696C746572222073656C6563743D2266616C7365282922202F3E0D0A090909093C78736C743A776974682D706172616D206E616D653D22686964654966222073656C6563743D2266616C7365282922202F3E0D0A090909093C78736C743A776974682D706172616D206E616D653D22696E736574222073656C6563743D2266616C7365282922202F3E0D0A090909093C78736C743A77 
LANSA     JQMOBILE  tsp_lansa_jqmobile_webroutine.xsl                 00000000210000100000010006974682D706172616D206E616D653D2273656172636846696C746572506C616365686F6C646572222073656C6563743D22272722202F3E0D0A090909093C78736C743A776974682D706172616D206E616D653D2273656172636846696C74657253776174636822202F3E0D0A090909093C78736C743A776974682D706172616D206E616D653D2273706C697449636F6E222073656C6563743D22272722202F3E0D0A090909093C78736C743A776974682D706172616D206E616D653D2273706C6974537761746368222073656C6563743D22272722202F3E0D0A090909093C78736C743A776974682D706172616D206E616D653D227377617463 
LANSA     JQMOBILE  tsp_lansa_jqmobile_webroutine.xsl                 000000002100002000000000068222073656C6563743D22272722202F3E0D0A090909093C78736C743A776974682D706172616D206E616D653D226C6973744974656D436C617373222073656C6563743D22272722202F3E0D0A090909093C78736C743A776974682D706172616D206E616D653D2266696C74657254657874436F6C756D6E222073656C6563743D22272722202F3E0D0A09093C2F78736C743A6170706C792D74656D706C617465733E0D0A093C2F78736C3A74656D706C6174653E0D0A0D0A093C78736C3A74656D706C617465206D617463683D2274736D6C3A6C6973745B74736D6C3A6D6F6465203D202768696464656E275D22206D6F64653D2274656D70 
LANSA     JQMOBILE  tsp_lansa_jqmobile_webroutine.xsl                 00000000220000100000010006C6174655F7265666572656E6365223E0D0A09093C78736C743A6170706C792D74656D706C617465732073656C6563743D222F6C786D6C3A646174612F6C786D6C3A6C697374732F6C786D6C3A6C6973745B406E616D653D277B406E616D657D275D222077643A6C6973746E616D653D227B406E616D657D22202F3E0D0A093C2F78736C3A74656D706C6174653E0D0A0D0A093C78736C3A74656D706C617465206D617463683D2274736D6C3A6C6973745B74736D6C3A6D6F6465203D202770726976617465275D22206D6F64653D2274656D706C6174655F7265666572656E6365223E0D0A093C2F78736C3A74656D706C6174653E0D0A0D0A 
LANSA     JQMOBILE  tsp_lansa_jqmobile_webroutine.xsl                 0000000022000020000000000093C78736C3A74656D706C617465206D617463683D2274736D6C3A6C6973745B74736D6C3A6D6F6465203D202768696464656E275D22206D6F64653D2274656D706C6174655F646566696E6974696F6E223E0D0A09093C78736C3A7661726961626C65206E616D653D226C6973742D6E616D65222073656C6563743D22406E616D65222F3E0D0A09093C78736C3A63616C6C2D74656D706C617465206E616D653D22626C616E6B5F6C696E65222F3E0D0A09093C78736C743A74656D706C617465206D617463683D222F6C786D6C3A646174612F6C786D6C3A6C697374732F6C786D6C3A6C6973745B406E616D653D277B246C6973742D6E616D 
LANSA     JQMOBILE  tsp_lansa_jqmobile_webroutine.xsl                 0000000023000010000001000657D275D223E0D0A0909093C78736C743A7661726961626C65206E616D653D227468656C697374222073656C6563743D222F6C786D6C3A646174612F6C786D6C3A6C697374732F6C786D6C3A6C6973745B406E616D653D277B406E616D657D275D22202F3E0D0A0909093C78736C743A696620746573743D226E6F7428246C7765625F64657369676E5F6D6F646529223E0D0A090909093C696E70757420747970653D2268696464656E22206E616D653D227B246C6973742D6E616D657D2E2E222076616C75653D227B7B636F756E74286C786D6C3A6C6973742D656E74726965732F6C786D6C3A656E7472795B315D297D7D22202F3E0D0A09 
LANSA     JQMOBILE  tsp_lansa_jqmobile_webroutine.xsl                 000000002300002000000000009093C2F78736C743A69663E0D0A0909093C756C2069643D227B246C6973742D6E616D657D2220636C6173733D226C7374645F68696464656E6C697374223E0D0A090909093C78736C743A63686F6F73653E0D0A09090909093C78736C743A7768656E20746573743D22246C7765625F64657369676E5F6D6F6465223E0D0A0909090909093C78736C743A617474726962757465206E616D653D2261746F6D696373656C656374696F6E223E747275653C2F78736C743A6174747269627574653E0D0A0909090909093C78736C3A76616C75652D6F662073656C6563743D22636F6E636174282723272C406E616D652922202F3E0D0A09090909 
LANSA     JQMOBILE  tsp_lansa_jqmobile_webroutine.xsl                 0000000024000010000001000093C2F78736C743A7768656E3E0D0A09090909093C78736C743A6F74686572776973653E0D0A0909090909093C78736C3A6170706C792D74656D706C617465732073656C6563743D222E2F74736D6C3A6C6973742D656E74726965732F74736D6C3A656E74727922202F3E0D0A09090909093C2F78736C743A6F74686572776973653E0D0A090909093C2F78736C743A63686F6F73653E0D0A0909093C2F756C3E0D0A09093C2F78736C743A74656D706C6174653E0D0A093C2F78736C3A74656D706C6174653E0D0A090D0A093C78736C3A74656D706C617465206D617463683D2274736D6C3A6C6973745B2874736D6C3A6D6F6465203D2027 
LANSA     JQMOBILE  tsp_lansa_jqmobile_webroutine.xsl                 0000000024000020000000000696E7075742729206F72202874736D6C3A6D6F6465203D20276F75747075742729206F72202874736D6C3A6D6F6465203D2027626F746827295D22206D6F64653D2274656D706C6174655F646566696E6974696F6E223E0D0A09093C78736C3A7661726961626C65206E616D653D226C6973742D6E616D65222073656C6563743D22406E616D65222F3E0D0A09093C78736C3A7661726961626C65206E616D653D22696E6C696E655F6C697374222073656C6563743D222840696E6C696E65203D2027747275652729206F7220282840696E6C696E65203D202764656661756C74272920616E642024675F696E6C696E655F6C6973747329222F 
LANSA     JQMOBILE  tsp_lansa_jqmobile_webroutine.xsl                 00000000250000100000010003E0D0A09093C78736C3A63616C6C2D74656D706C617465206E616D653D22626C616E6B5F6C696E65222F3E0D0A0D0A09093C78736C743A74656D706C617465206D617463683D222F6C786D6C3A646174612F6C786D6C3A6C697374732F6C786D6C3A6C6973745B406E616D653D277B246C6973742D6E616D657D275D223E0D0A0909093C78736C743A706172616D206E616D653D22636C617373222073656C6563743D22272722202F3E0D0A0909093C78736C743A706172616D206E616D653D22636F756E74537761746368222073656C6563743D222727222077643A747970653D227374643A6A716D5F7468656D655F73776174636822202F 
LANSA     JQMOBILE  tsp_lansa_jqmobile_webroutine.xsl                 00000000250000200000000003E0D0A0909093C78736C743A706172616D206E616D653D2264697669646572537761746368222073656C6563743D222727222077643A747970653D227374643A6A716D5F7468656D655F73776174636822202F3E0D0A0909093C78736C743A706172616D206E616D653D2268617353656172636846696C746572222073656C6563743D2266616C73652829222077643A747970653D227374643A626F6F6C65616E22202F3E0D0A0909093C78736C743A706172616D206E616D653D22686964654966222073656C6563743D2266616C73652829222077643A747970653D227374643A626F6F6C65616E22202F3E0D0A0909093C78736C743A7061 
LANSA     JQMOBILE  tsp_lansa_jqmobile_webroutine.xsl                 000000002600001000000100072616D206E616D653D22696E736574222073656C6563743D2266616C73652829222077643A747970653D227374643A626F6F6C65616E22202F3E0D0A0909093C78736C743A706172616D206E616D653D2273656172636846696C746572506C616365686F6C646572222073656C6563743D22272722202F3E0D0A0909093C78736C743A706172616D206E616D653D2273656172636846696C746572537761746368222077643A747970653D227374643A6A716D5F7468656D655F73776174636822202F3E0D0A0909093C78736C743A706172616D206E616D653D2273706C697449636F6E222073656C6563743D222727222077643A747970653D 
LANSA     JQMOBILE  tsp_lansa_jqmobile_webroutine.xsl                 0000000026000020000000000227374643A6A716D5F69636F6E22202F3E0D0A0909093C78736C743A706172616D206E616D653D2273706C6974537761746368222073656C6563743D222727222077643A747970653D227374643A6A716D5F7468656D655F73776174636822202F3E0D0A0909093C78736C743A706172616D206E616D653D22737761746368222073656C6563743D222727222077643A747970653D227374643A6A716D5F7468656D655F73776174636822202F3E0D0A0909093C78736C743A706172616D206E616D653D226C6973744974656D436C617373222073656C6563743D22272722202F3E0D0A0909093C78736C743A706172616D206E616D653D2266 
LANSA     JQMOBILE  tsp_lansa_jqmobile_webroutine.xsl                 0000000027000010000001000696C74657254657874436F6C756D6E222073656C6563743D22272722202F3E0D0A09090D0A0909093C78736C743A7661726961626C65206E616D653D227468656C697374222073656C6563743D222F6C786D6C3A646174612F6C786D6C3A6C697374732F6C786D6C3A6C6973745B406E616D653D277B406E616D657D275D22202F3E0D0A0909093C78736C743A696620746573743D226E6F7428246C7765625F64657369676E5F6D6F646529223E0D0A090909093C696E70757420747970653D2268696464656E22206E616D653D227B246C6973742D6E616D657D2E2E222076616C75653D227B636F756E74286C786D6C3A6C6973742D656E74 
LANSA     JQMOBILE  tsp_lansa_jqmobile_webroutine.xsl                 0000000027000020000000000726965732F6C786D6C3A656E7472795B315D297D22202F3E0D0A0909093C2F78736C743A69663E0D0A0909093C78736C743A696620746573743D226E6F74282468696465496629206F7220246C7765625F64657369676E5F6D6F6465223E0D0A090909093C756C20646174612D726F6C653D226C69737476696577222069643D227B246C6973742D6E616D657D223E0D0A09090909093C78736C743A63686F6F73653E0D0A0909090909093C78736C743A7768656E20746573743D22246C7765625F64657369676E5F6D6F6465223E0D0A090909090909093C78736C743A617474726962757465206E616D653D22636C617373223E6C7374642D 
LANSA     JQMOBILE  tsp_lansa_jqmobile_webroutine.xsl                 000000002800001000000100064657369676E2D6C697374203C78736C743A76616C75652D6F662073656C6563743D2224636C61737322202F3E3C2F78736C743A6174747269627574653E0D0A0909090909093C2F78736C743A7768656E3E0D0A0909090909093C78736C743A6F74686572776973653E0D0A090909090909093C78736C743A696620746573743D2224636C61737320213D202727223E0D0A09090909090909093C78736C743A617474726962757465206E616D653D22636C617373223E3C78736C743A76616C75652D6F662073656C6563743D2224636C61737322202F3E3C2F78736C743A6174747269627574653E0D0A090909090909093C2F78736C743A69 
LANSA     JQMOBILE  tsp_lansa_jqmobile_webroutine.xsl                 0000000028000020000000000663E0D0A0909090909093C2F78736C743A6F74686572776973653E0D0A09090909093C2F78736C743A63686F6F73653E0D0A09090909093C78736C743A696620746573743D222473776174636820213D202727223E0D0A0909090909093C78736C743A617474726962757465206E616D653D22646174612D7468656D65223E3C78736C743A76616C75652D6F662073656C6563743D222473776174636822202F3E3C2F78736C743A6174747269627574653E0D0A09090909093C2F78736C743A69663E0D0A09090909093C78736C743A696620746573743D2224636F756E7453776174636820213D202727223E0D0A0909090909093C78736C74 
LANSA     JQMOBILE  tsp_lansa_jqmobile_webroutine.xsl                 00000000290000100000010003A617474726962757465206E616D653D22646174612D636F756E742D7468656D65223E3C78736C743A76616C75652D6F662073656C6563743D2224636F756E7453776174636822202F3E3C2F78736C743A6174747269627574653E0D0A09090909093C2F78736C743A69663E0D0A09090909093C78736C743A696620746573743D22246469766964657253776174636820213D202727223E0D0A0909090909093C78736C743A617474726962757465206E616D653D22646174612D646976696465722D7468656D65223E3C78736C743A76616C75652D6F662073656C6563743D22246469766964657253776174636822202F3E3C2F78736C743A 
LANSA     JQMOBILE  tsp_lansa_jqmobile_webroutine.xsl                 00000000290000200000000006174747269627574653E0D0A09090909093C2F78736C743A69663E0D0A09090909093C78736C743A696620746573743D222473706C697453776174636820213D202727223E0D0A0909090909093C78736C743A617474726962757465206E616D653D22646174612D73706C69742D7468656D65223E3C78736C743A76616C75652D6F662073656C6563743D222473706C697453776174636822202F3E3C2F78736C743A6174747269627574653E0D0A09090909093C2F78736C743A69663E0D0A09090909093C78736C743A696620746573743D222473706C697449636F6E213D202727223E0D0A0909090909093C78736C743A61747472696275 
LANSA     JQMOBILE  tsp_lansa_jqmobile_webroutine.xsl                 00000000300000100000010007465206E616D653D22646174612D73706C69742D69636F6E223E3C78736C743A76616C75652D6F662073656C6563743D222473706C697449636F6E22202F3E3C2F78736C743A6174747269627574653E0D0A09090909093C2F78736C743A69663E0D0A09090909093C78736C743A696620746573743D2224696E736574223E0D0A0909090909093C78736C743A617474726962757465206E616D653D22646174612D696E736574223E747275653C2F78736C743A6174747269627574653E0D0A09090909093C2F78736C743A69663E0D0A09090909093C78736C743A696620746573743D222468617353656172636846696C746572223E0D0A09 
LANSA     JQMOBILE  tsp_lansa_jqmobile_webroutine.xsl                 000000003000002000000000009090909093C78736C743A617474726962757465206E616D653D22646174612D66696C746572223E747275653C2F78736C743A6174747269627574653E0D0A0909090909093C78736C743A696620746573743D222473656172636846696C746572506C616365686F6C64657220213D202727223E0D0A090909090909093C78736C743A617474726962757465206E616D653D22646174612D66696C7465722D706C616365686F6C646572223E3C78736C743A76616C75652D6F662073656C6563743D222473656172636846696C746572506C616365686F6C64657222202F3E3C2F78736C743A6174747269627574653E0D0A0909090909093C2F 
LANSA     JQMOBILE  tsp_lansa_jqmobile_webroutine.xsl                 000000003100001000000100078736C743A69663E0D0A0909090909093C78736C743A696620746573743D222473656172636846696C74657253776174636820213D202727223E0D0A090909090909093C78736C743A617474726962757465206E616D653D22646174612D66696C7465722D7468656D65223E3C78736C743A76616C75652D6F662073656C6563743D222473656172636846696C74657253776174636822202F3E3C2F78736C743A6174747269627574653E0D0A0909090909093C2F78736C743A69663E0D0A09090909093C2F78736C743A69663E0D0A090909090D0A09090909093C78736C3A6170706C792D74656D706C617465732073656C6563743D227473 
LANSA     JQMOBILE  tsp_lansa_jqmobile_webroutine.xsl                 00000000310000200000000006D6C3A6C6973742D686561646572223E0D0A0909090909093C78736C3A776974682D706172616D206E616D653D22696E6C696E655F6C697374222073656C6563743D2224696E6C696E655F6C697374222F3E0D0A09090909093C2F78736C3A6170706C792D74656D706C617465733E0D0A09090909093C78736C3A6170706C792D74656D706C617465732073656C6563743D2274736D6C3A6C6973742D656E74726965732F74736D6C3A656E747279223E0D0A0909090909093C78736C3A776974682D706172616D206E616D653D22696E6C696E655F6C697374222073656C6563743D2224696E6C696E655F6C697374222F3E0D0A0909090909 
LANSA     JQMOBILE  tsp_lansa_jqmobile_webroutine.xsl                 00000000320000100000010003C2F78736C3A6170706C792D74656D706C617465733E0D0A090909093C2F756C3E0D0A0909093C2F78736C743A69663E0D0A09093C2F78736C743A74656D706C6174653E0D0A09093C78736C3A63616C6C2D74656D706C617465206E616D653D22626C616E6B5F6C696E65222F3E0D0A093C2F78736C3A74656D706C6174653E0D0A0D0A093C78736C3A74656D706C617465206D617463683D2274736D6C3A6C6973745B74736D6C3A6D6F6465203D202770726976617465275D22206D6F64653D2274656D706C6174655F646566696E6974696F6E223E0D0A093C2F78736C3A74656D706C6174653E0D0A0D0A093C78736C3A74656D706C6174 
LANSA     JQMOBILE  tsp_lansa_jqmobile_webroutine.xsl                 000000003200002000000000065206D617463683D2274736D6C3A6C6973742D686561646572223E0D0A09093C78736C3A706172616D206E616D653D22696E6C696E655F6C697374222073656C6563743D2266616C73652829222F3E0D0A09093C6C6920646174612D726F6C653D226C6973742D64697669646572223E0D0A0909093C78736C3A6170706C792D74656D706C617465732073656C6563743D222A22206D6F64653D226865616465725F706C6163656D656E74223E0D0A090909093C78736C3A776974682D706172616D206E616D653D22696E6C696E655F6C697374222073656C6563743D2224696E6C696E655F6C697374222F3E0D0A0909093C2F78736C3A6170 
LANSA     JQMOBILE  tsp_lansa_jqmobile_webroutine.xsl                 0000000033000010000001000706C792D74656D706C617465733E0D0A09093C2F6C693E0D0A093C2F78736C3A74656D706C6174653E0D0A090D0A093C212D2D204C6973742068656164657220706C6163656D656E74206F6620636F6C756D6E2068656164696E6773202D2D3E0D0A093C78736C3A74656D706C617465206D617463683D2274736D6C3A6C6973742D6865616465722F74736D6C3A68656164657222206D6F64653D226865616465725F706C6163656D656E74223E0D0A09093C78736C3A706172616D206E616D653D22696E6C696E655F6C697374222073656C6563743D2266616C73652829222F3E0D0A09093C78736C3A7661726961626C65206E616D653D22 
LANSA     JQMOBILE  tsp_lansa_jqmobile_webroutine.xsl                 00000000330000200000000006865616465725F6E616D65222073656C6563743D22406E616D65222F3E0D0A09093C78736C3A7661726961626C65206E616D653D22636F6C756D6E222073656C6563743D222E2E2F2E2E2F74736D6C3A6C6973742D656E74726965732F74736D6C3A656E7472792F74736D6C3A636F6C756D6E5B406E616D653D246865616465725F6E616D655D222F3E0D0A09093C78736C3A696620746573743D222824636F6C756D6E2F74736D6C3A6D6F646520213D202770726976617465272920616E64202824636F6C756D6E2F74736D6C3A6D6F646520213D202768696464656E2729223E0D0A0909093C7370616E20636C6173733D227B7472616E73 
LANSA     JQMOBILE  tsp_lansa_jqmobile_webroutine.xsl                 00000000340000100000010006C61746528406E616D652C20246E6D746F6B656E5F696E76616C69645F63686172732C20246E6D746F6B656E5F7265706C6163656D656E745F6368617273297D223E0D0A090909093C78736C743A666F722D656163682073656C6563743D226B657928276C697374272C277B2E2E2F2E2E2F406E616D657D27292F6C786D6C3A6C6973742D6865616465722F6C786D6C3A6865616465725B7B706F736974696F6E28297D5D2F2A5B2E2F2F7465787428295B6E6F726D616C697A652D7370616365282E29213D27275D5D222077643A656469742D61732D6C6973743D2266616C7365223E0D0A09090909093C78736C743A76616C75652D6F6620 
LANSA     JQMOBILE  tsp_lansa_jqmobile_webroutine.xsl                 000000003400002000000000073656C6563743D22636F6E636174282E2C2720272922202F3E0D0A090909093C2F78736C743A666F722D656163683E0D0A0909093C2F7370616E3E0D0A09093C2F78736C3A69663E0D0A093C2F78736C3A74656D706C6174653E0D0A0D0A093C78736C3A74656D706C617465206D617463683D2274736D6C3A6C6973745B74736D6C3A6D6F6465203D202768696464656E275D2F74736D6C3A6C6973742D656E74726965732F74736D6C3A656E747279223E0D0A09093C6C693E0D0A0909093C78736C743A666F722D656163682073656C6563743D22247468656C6973742F6C786D6C3A6C6973742D656E74726965732F6C786D6C3A656E7472 
LANSA     JQMOBILE  tsp_lansa_jqmobile_webroutine.xsl                 000000003500001000000100079223E0D0A090909093C78736C3A6170706C792D74656D706C617465732073656C6563743D2274736D6C3A636F6C756D6E22206D6F64653D227661726961626C655F646566696E6974696F6E223E0D0A09090909093C78736C3A776974682D706172616D206E616D653D22696E6C696E655F6C697374222073656C6563743D2266616C73652829222F3E0D0A090909093C2F78736C3A6170706C792D74656D706C617465733E0D0A090909093C78736C3A6170706C792D74656D706C617465732073656C6563743D2274736D6C3A636F6C756D6E22206D6F64653D22636F6C756D6E5F706C6163656D656E74222F3E0D0A0909093C2F78736C74 
LANSA     JQMOBILE  tsp_lansa_jqmobile_webroutine.xsl                 00000000350000200000000003A666F722D656163683E0D0A09093C2F6C693E0D0A093C2F78736C3A74656D706C6174653E0D0A090D0A093C78736C3A74656D706C617465206D617463683D2274736D6C3A6C6973745B74736D6C3A6D6F646520213D202768696464656E275D2F74736D6C3A6C6973742D656E74726965732F74736D6C3A656E747279223E0D0A09093C78736C3A706172616D206E616D653D22696E6C696E655F6C697374222073656C6563743D2266616C73652829222F3E0D0A09093C78736C743A666F722D656163682073656C6563743D22247468656C6973742F6C786D6C3A6C6973742D656E74726965732F6C786D6C3A656E747279223E0D0A090909 
LANSA     JQMOBILE  tsp_lansa_jqmobile_webroutine.xsl                 00000000360000100000010003C78736C3A6170706C792D74656D706C617465732073656C6563743D2274736D6C3A636F6C756D6E22206D6F64653D227661726961626C655F646566696E6974696F6E223E0D0A090909093C78736C3A776974682D706172616D206E616D653D22696E6C696E655F6C697374222073656C6563743D2266616C73652829222F3E0D0A0909093C2F78736C3A6170706C792D74656D706C617465733E0D0A0909093C6C693E0D0A090909093C78736C743A696620746573743D22246C6973744974656D436C61737320213D202727223E0D0A09090909093C78736C743A617474726962757465206E616D653D22636C617373223E3C78736C743A76 
LANSA     JQMOBILE  tsp_lansa_jqmobile_webroutine.xsl                 0000000036000020000000000616C75652D6F662073656C6563743D22246C6973744974656D436C61737322202F3E3C2F78736C743A6174747269627574653E0D0A090909093C2F78736C743A69663E0D0A090909093C78736C743A696620746573743D222466696C74657254657874436F6C756D6E20213D202727223E0D0A09090909093C78736C743A617474726962757465206E616D653D22646174612D66696C74657274657874223E3C78736C743A76616C75652D6F662073656C6563743D226C786D6C3A636F6C756D6E5B406E616D65203D202466696C74657254657874436F6C756D6E5D22202F3E3C2F78736C743A6174747269627574653E0D0A090909093C2F78 
LANSA     JQMOBILE  tsp_lansa_jqmobile_webroutine.xsl                 0000000037000010000001000736C743A69663E0D0A090909093C78736C743A696620746573743D22246C7765625F64657369676E5F6D6F6465223E0D0A09090909093C78736C743A617474726962757465206E616D653D227374796C65223E6D696E2D77696474683A353070783B3C2F78736C743A6174747269627574653E0D0A090909093C2F78736C743A69663E0D0A090909093C78736C3A6170706C792D74656D706C617465732073656C6563743D2274736D6C3A636F6C756D6E22206D6F64653D22636F6C756D6E5F706C6163656D656E74222F3E0D0A0909093C2F6C693E0D0A09093C2F78736C743A666F722D656163683E0D0A093C2F78736C3A74656D706C6174 
LANSA     JQMOBILE  tsp_lansa_jqmobile_webroutine.xsl                 0000000037000020000000000653E0D0A0D0A093C212D2D20436F6C756D6E207661726961626C6520646566696E6974696F6E202D2D3E0D0A093C78736C3A74656D706C617465206D617463683D2274736D6C3A6C6973742D656E74726965732F74736D6C3A656E7472792F74736D6C3A636F6C756D6E22206D6F64653D227661726961626C655F646566696E6974696F6E223E0D0A09093C78736C3A706172616D206E616D653D22696E6C696E655F6C697374222073656C6563743D2266616C73652829222F3E0D0A09093C78736C3A7661726961626C65206E616D653D22636F6C756D6E5F706F73222073656C6563743D22706F736974696F6E2829222F3E0D0A09093C78 
LANSA     JQMOBILE  tsp_lansa_jqmobile_webroutine.xsl                 0000000038000010000001000736C743A7661726961626C65206E616D653D227B7472616E736C61746528406E616D652C20246E6D746F6B656E5F696E76616C69645F63686172732C20246E6D746F6B656E5F7265706C6163656D656E745F6368617273297D222073656C6563743D226C786D6C3A636F6C756D6E5B7B24636F6C756D6E5F706F737D5D22202F3E0D0A093C2F78736C3A74656D706C6174653E0D0A0D0A093C78736C3A74656D706C617465206D617463683D2274736D6C3A6C6973745B74736D6C3A6D6F6465203D202768696464656E275D2F74736D6C3A6C6973742D656E74726965732F74736D6C3A656E7472792F74736D6C3A636F6C756D6E22206D6F64 
LANSA     JQMOBILE  tsp_lansa_jqmobile_webroutine.xsl                 0000000038000020000000000653D22636F6C756D6E5F706C6163656D656E74223E0D0A09093C78736C3A706172616D206E616D653D22696E6C696E655F6C697374222073656C6563743D2266616C73652829222F3E0D0A09093C78736C3A7661726961626C65206E616D653D22636F6C756D6E5F76617222203E0D0A0909093C78736C3A76616C75652D6F662073656C6563743D227472616E736C61746528406E616D652C20246E6D746F6B656E5F696E76616C69645F63686172732C20246E6D746F6B656E5F7265706C6163656D656E745F63686172732922202F3E0D0A09093C2F78736C3A7661726961626C653E0D0A09093C78736C3A63686F6F73653E0D0A0909093C 
LANSA     JQMOBILE  tsp_lansa_jqmobile_webroutine.xsl                 000000003900001000000100078736C3A7768656E20746573743D226E6F742824675F696E6C696E65725F63616C6C29223E0D0A090909093C78736C3A696620746573743D2274736D6C3A6D6F646520213D20277072697661746527223E0D0A09090909093C78736C3A63686F6F73653E0D0A0909090909093C78736C3A7768656E20746573743D2274736D6C3A6D6F6465203D2027696E70757427206F722074736D6C3A6D6F6465203D202768696464656E27223E0D0A090909090909093C78736C3A63616C6C2D74656D706C617465206E616D653D226669656C645F76616C75655F64656661756C745F76697375616C697A6174696F6E223E0D0A09090909090909093C78 
LANSA     JQMOBILE  tsp_lansa_jqmobile_webroutine.xsl                 0000000039000020000000000736C3A776974682D706172616D206E616D653D226669656C64222073656C6563743D222E222F3E0D0A09090909090909093C78736C3A776974682D706172616D206E616D653D22636F6C756D6E5F766172222073656C6563743D2224636F6C756D6E5F766172222F3E0D0A09090909090909093C78736C3A776974682D706172616D206E616D653D22696E6C696E655F706172616D222073656C6563743D2224696E6C696E655F6C697374222F3E0D0A090909090909093C2F78736C3A63616C6C2D74656D706C6174653E0D0A0909090909093C2F78736C3A7768656E3E0D0A0909090909093C78736C3A7768656E20746573743D2274736D6C 
LANSA     JQMOBILE  tsp_lansa_jqmobile_webroutine.xsl                 00000000400000100000010003A6D6F6465203D20276F757470757427223E0D0A090909090909093C7370616E3E0D0A09090909090909093C78736C3A63686F6F73653E0D0A0909090909090909093C78736C3A7768656E20746573743D2224696E6C696E655F6C697374223E3C77643A636F6C756D6E2D76616C7565206E616D653D227B406E616D657D222F3E3C2F78736C3A7768656E3E0D0A0909090909090909093C78736C3A6F74686572776973653E3C78736C743A76616C75652D6F662073656C6563743D22247B24636F6C756D6E5F7661727D222F3E3C2F78736C3A6F74686572776973653E0D0A09090909090909093C2F78736C3A63686F6F73653E0D0A090909 
LANSA     JQMOBILE  tsp_lansa_jqmobile_webroutine.xsl                 0000000040000020000000000090909093C2F7370616E3E0D0A0909090909093C2F78736C3A7768656E3E0D0A09090909093C2F78736C3A63686F6F73653E0D0A090909093C2F78736C3A69663E0D0A0909093C2F78736C3A7768656E3E0D0A0909093C78736C3A6F74686572776973653E0D0A090909093C78736C3A63616C6C2D74656D706C617465206E616D653D226669656C645F76616C75655F64656661756C745F76697375616C697A6174696F6E223E0D0A09090909093C78736C3A776974682D706172616D206E616D653D226669656C64222073656C6563743D222E222F3E0D0A09090909093C78736C3A776974682D706172616D206E616D653D22636F6C756D6E 
LANSA     JQMOBILE  tsp_lansa_jqmobile_webroutine.xsl                 00000000410000100000010005F766172222073656C6563743D2224636F6C756D6E5F766172222F3E0D0A09090909093C78736C3A776974682D706172616D206E616D653D22696E6C696E655F706172616D222073656C6563743D2224696E6C696E655F6C697374222F3E0D0A090909093C2F78736C3A63616C6C2D74656D706C6174653E0D0A0909093C2F78736C3A6F74686572776973653E0D0A09093C2F78736C3A63686F6F73653E0D0A093C2F78736C3A74656D706C6174653E0D0A090D0A093C78736C3A74656D706C617465206D617463683D2274736D6C3A6C6973745B74736D6C3A6D6F646520213D202768696464656E275D2F74736D6C3A6C6973742D656E7472 
LANSA     JQMOBILE  tsp_lansa_jqmobile_webroutine.xsl                 00000000410000200000000006965732F74736D6C3A656E7472792F74736D6C3A636F6C756D6E22206D6F64653D22636F6C756D6E5F706C6163656D656E74223E0D0A09093C78736C3A706172616D206E616D653D22696E6C696E655F6C697374222073656C6563743D2266616C73652829222F3E0D0A09093C78736C3A7661726961626C65206E616D653D227573655F7765626C6574222073656C6563743D2274736D6C3A7573652D7765626C6574732F74736D6C3A7573652D7765626C65745B40746563686E6F6C6F67792D73657276696365203D20247473705F716E616D655D222F3E0D0A09093C78736C3A63686F6F73653E0D0A0909093C78736C3A7768656E207465 
LANSA     JQMOBILE  tsp_lansa_jqmobile_webroutine.xsl                 000000004200001000000100073743D226E6F742824675F696E6C696E65725F63616C6C29223E0D0A090909093C78736C3A696620746573743D2274736D6C3A6D6F646520213D20277072697661746527223E0D0A09090909093C78736C3A63686F6F73653E0D0A0909090909093C78736C3A7768656E20746573743D22247573655F7765626C657420616E64206B657928277765626C6574272C20247573655F7765626C65742F406E616D65292F74736D6C3A746563686E6F6C6F67792D73657276696365732F74736D6C3A746563686E6F6C6F67792D736572766963655B406E616D65203D20247473705F716E616D655D223E0D0A090909090909093C78736C3A63616C6C 
LANSA     JQMOBILE  tsp_lansa_jqmobile_webroutine.xsl                 00000000420000200000000002D74656D706C617465206E616D653D227765626C65745F74656D706C6174655F63616C6C223E0D0A09090909090909093C78736C3A776974682D706172616D206E616D653D226669656C64222073656C6563743D222E222F3E0D0A09090909090909093C78736C3A776974682D706172616D206E616D653D22666C645F6F725F636F6C222073656C6563743D2227636F6C756D6E27222F3E0D0A09090909090909093C78736C3A776974682D706172616D206E616D653D226E616D65222073656C6563743D22406E616D65222F3E0D0A09090909090909093C78736C3A776974682D706172616D206E616D653D22646973706C61796D6F646522 
LANSA     JQMOBILE  tsp_lansa_jqmobile_webroutine.xsl                 00000000430000100000010002073656C6563743D2274736D6C3A6D6F64652F746578742829222F3E0D0A09090909090909093C78736C3A776974682D706172616D206E616D653D227573655F7765626C6574222073656C6563743D22247573655F7765626C6574222F3E0D0A09090909090909093C78736C3A776974682D706172616D206E616D653D227765626C6574222073656C6563743D226B657928277765626C6574272C20247573655F7765626C65742F406E616D6529222F3E0D0A09090909090909093C78736C3A776974682D706172616D206E616D653D22696E6C696E655F706172616D222073656C6563743D2224696E6C696E655F6C697374222F3E0D0A0909 
LANSA     JQMOBILE  tsp_lansa_jqmobile_webroutine.xsl                 000000004300002000000000009090909093C2F78736C3A63616C6C2D74656D706C6174653E0D0A0909090909093C2F78736C3A7768656E3E0D0A0909090909093C78736C3A6F74686572776973653E0D0A090909090909093C78736C3A7661726961626C65206E616D653D22636F6C756D6E5F76617222203E0D0A09090909090909093C78736C3A76616C75652D6F662073656C6563743D227472616E736C61746528406E616D652C20246E6D746F6B656E5F696E76616C69645F63686172732C20246E6D746F6B656E5F7265706C6163656D656E745F63686172732922202F3E0D0A090909090909093C2F78736C3A7661726961626C653E0D0A090909090909093C78736C 
LANSA     JQMOBILE  tsp_lansa_jqmobile_webroutine.xsl                 00000000440000100000010003A63616C6C2D74656D706C617465206E616D653D226669656C645F76616C75655F64656661756C745F76697375616C697A6174696F6E223E0D0A09090909090909093C78736C3A776974682D706172616D206E616D653D226669656C64222073656C6563743D222E222F3E0D0A09090909090909093C78736C3A776974682D706172616D206E616D653D22636F6C756D6E5F766172222073656C6563743D2224636F6C756D6E5F766172222F3E0D0A09090909090909093C78736C3A776974682D706172616D206E616D653D22696E6C696E655F706172616D222073656C6563743D2224696E6C696E655F6C697374222F3E0D0A090909090909 
LANSA     JQMOBILE  tsp_lansa_jqmobile_webroutine.xsl                 0000000044000020000000000093C2F78736C3A63616C6C2D74656D706C6174653E0D0A0909090909093C2F78736C3A6F74686572776973653E0D0A09090909093C2F78736C3A63686F6F73653E0D0A090909093C2F78736C3A69663E0D0A0909093C2F78736C3A7768656E3E0D0A0909093C78736C3A6F74686572776973653E0D0A090909093C78736C3A63616C6C2D74656D706C617465206E616D653D227765626C65745F74656D706C6174655F63616C6C223E0D0A09090909093C78736C3A776974682D706172616D206E616D653D226669656C64222073656C6563743D222E222F3E0D0A09090909093C78736C3A776974682D706172616D206E616D653D22666C645F 
LANSA     JQMOBILE  tsp_lansa_jqmobile_webroutine.xsl                 00000000450000100000010006F725F636F6C222073656C6563743D2227636F6C756D6E27222F3E0D0A09090909093C78736C3A776974682D706172616D206E616D653D226E616D65222073656C6563743D22406E616D65222F3E0D0A09090909093C78736C3A776974682D706172616D206E616D653D22646973706C61796D6F6465222073656C6563743D2274736D6C3A6D6F64652F746578742829222F3E0D0A09090909093C78736C3A776974682D706172616D206E616D653D227573655F7765626C6574222073656C6563743D22247573655F7765626C6574222F3E0D0A09090909093C78736C3A776974682D706172616D206E616D653D227765626C6574222073656C 
LANSA     JQMOBILE  tsp_lansa_jqmobile_webroutine.xsl                 00000000450000200000000006563743D226B657928277765626C6574272C20247573655F7765626C65742F406E616D6529222F3E0D0A09090909093C78736C3A776974682D706172616D206E616D653D22696E6C696E655F706172616D222073656C6563743D2224696E6C696E655F6C697374222F3E0D0A090909093C2F78736C3A63616C6C2D74656D706C6174653E0D0A0909093C2F78736C3A6F74686572776973653E0D0A09093C2F78736C3A63686F6F73653E0D0A093C2F78736C3A74656D706C6174653E0D0A0D0A093C212D2D205765626C657420696D706F727473202D2D3E0D0A093C78736C3A74656D706C617465206E616D653D227765626C65742D696D706F 
LANSA     JQMOBILE  tsp_lansa_jqmobile_webroutine.xsl                 0000000046000010000001000727473223E0D0A09093C78736C3A6170706C792D74656D706C617465732073656C6563743D222F74736D6C3A646174612F74736D6C3A7765626C6574732F74736D6C3A7765626C65745B74736D6C3A746563686E6F6C6F67792D73657276696365732F74736D6C3A746563686E6F6C6F67792D736572766963652F406E616D65203D20247473705F716E616D655D22206D6F64653D227765626C65745F696D706F72747322202F3E0D0A093C2F78736C3A74656D706C6174653E0D0A0D0A093C212D2D204669656C642063617074696F6E202D2D3E0D0A093C78736C3A74656D706C617465206E616D653D226669656C642D63617074696F6E22 
LANSA     JQMOBILE  tsp_lansa_jqmobile_webroutine.xsl                 00000000460000200000000003E0D0A09093C78736C3A706172616D206E616D653D226669656C64222F3E0D0A0D0A09093C212D2D204F6E6C792072656E64657220612063617074696F6E206966207468652061737369676E6564207765626C657420646F65736E2774202D2D3E0D0A09093C78736C3A7661726961626C65206E616D653D227573655765626C6574222073656C6563743D22246669656C642F74736D6C3A7573652D7765626C6574732F74736D6C3A7573652D7765626C65745B40746563686E6F6C6F67792D73657276696365203D20247473705F716E616D655D222F3E0D0A09093C78736C3A7661726961626C65206E616D653D22646F43617074696F6E22 
LANSA     JQMOBILE  tsp_lansa_jqmobile_webroutine.xsl                 00000000470000100000010003E0D0A0909093C78736C3A63686F6F73653E0D0A090909093C78736C3A7768656E20746573743D22247573655765626C657420616E64206B657928277765626C6574272C20247573655765626C65742F406E616D65292F74736D6C3A746563686E6F6C6F67792D73657276696365732F74736D6C3A746563686E6F6C6F67792D736572766963655B406E616D65203D20247473705F716E616D655D223E0D0A09090909093C78736C3A696620746573743D226E6F74286B657928277765626C6574272C20247573655765626C65742F406E616D65292F74736D6C3A746563686E6F6C6F67792D73657276696365732F74736D6C3A746563686E6F 
LANSA     JQMOBILE  tsp_lansa_jqmobile_webroutine.xsl                 00000000470000200000000006C6F67792D736572766963655B406E616D65203D20247473705F716E616D655D2F74736D6C3A74656D706C6174652D706172616D732F74736D6C3A74656D706C6174652D706172616D5B74736D6C3A706172616D2D726F6C653D277374643A6669656C645F63617074696F6E275D29223E0D0A0909090909093C78736C3A746578743E747275653C2F78736C3A746578743E0D0A09090909093C2F78736C3A69663E0D0A090909093C2F78736C3A7768656E3E0D0A090909093C78736C3A6F74686572776973653E66616C73653C2F78736C3A6F74686572776973653E0D0A0909093C2F78736C3A63686F6F73653E0D0A09093C2F78736C3A76 
LANSA     JQMOBILE  tsp_lansa_jqmobile_webroutine.xsl                 000000004800001000000100061726961626C653E0D0A0D0A09093C78736C3A696620746573743D2224646F43617074696F6E203D20277472756527223E0D0A0909093C78736C3A7661726961626C65206E616D653D226669656C644964222073656C6563743D22636F6E63617428277B246C7765625F57524E616D657D5F272C246669656C642F406E616D652922202F3E0D0A0909093C6C6162656C3E0D0A090909093C78736C3A696620746573743D22246669656C642F74736D6C3A6D6F6465203D2027696E70757427223E0D0A09090909093C78736C3A7661726961626C65206E616D653D2270726F78795F666F726D6174222073656C6563743D226B65792827776562 
LANSA     JQMOBILE  tsp_lansa_jqmobile_webroutine.xsl                 00000000480000200000000006C6574272C20246669656C642F74736D6C3A7573652D7765626C6574732F74736D6C3A7573652D7765626C65742F406E616D65292F74736D6C3A746563686E6F6C6F67792D73657276696365732F74736D6C3A746563686E6F6C6F67792D736572766963655B406E616D65203D20247473705F716E616D655D5B4070726F78792D666F726D61745D2F4070726F78792D666F726D617422202F3E0D0A09090909093C78736C3A617474726962757465206E616D653D22666F72223E0D0A0909090909093C78736C3A63686F6F73653E0D0A090909090909093C78736C3A7768656E20746573743D222470726F78795F666F726D617420213D2027 
LANSA     JQMOBILE  tsp_lansa_jqmobile_webroutine.xsl                 000000004900001000000100027223E3C78736C3A76616C75652D6F662073656C6563743D22737562737472696E672D6265666F7265282470726F78795F666F726D61742C20272C2729222F3E3C78736C3A76616C75652D6F662073656C6563743D22246669656C64496422202F3E3C78736C3A76616C75652D6F662073656C6563743D22737562737472696E672D6166746572282470726F78795F666F726D61742C20272C2729222F3E3C2F78736C3A7768656E3E0D0A090909090909093C78736C3A6F74686572776973653E3C78736C3A76616C75652D6F662073656C6563743D22246669656C64496422202F3E3C2F78736C3A6F74686572776973653E0D0A0909090909 
LANSA     JQMOBILE  tsp_lansa_jqmobile_webroutine.xsl                 0000000049000020000000000093C2F78736C3A63686F6F73653E0D0A09090909093C2F78736C3A6174747269627574653E0D0A090909093C2F78736C3A69663E0D0A090909093C78736C3A63686F6F73653E0D0A09090909093C78736C3A7768656E20746573743D22246669656C642F74736D6C3A63617074696F6E2F40726566203D20276C6162656C27223E0D0A0909090909093C78736C743A76616C75652D6F662073656C6563743D226B657928276669656C642D63617074696F6E272C20277B246669656C642F406E616D657D27292F6C786D6C3A6C6162656C222F3E0D0A09090909093C2F78736C3A7768656E3E0D0A09090909093C78736C3A7768656E20746573 
LANSA     JQMOBILE  tsp_lansa_jqmobile_webroutine.xsl                 0000000050000010000001000743D22246669656C642F74736D6C3A63617074696F6E2F40726566203D20276465736372697074696F6E27223E0D0A0909090909093C78736C743A76616C75652D6F662073656C6563743D226B657928276669656C642D63617074696F6E272C20277B246669656C642F406E616D657D27292F6C786D6C3A6465736372697074696F6E222F3E0D0A09090909093C2F78736C3A7768656E3E0D0A09090909093C78736C3A7768656E20746573743D22246669656C642F74736D6C3A63617074696F6E2F40726566203D202768656164696E677327223E0D0A0909090909093C78736C743A76616C75652D6F662073656C6563743D226B65792827 
LANSA     JQMOBILE  tsp_lansa_jqmobile_webroutine.xsl                 00000000500000200000000006669656C642D63617074696F6E272C20277B246669656C642F406E616D657D27292F6C786D6C3A68656164696E672D31222F3E0D0A0909090909093C78736C743A76616C75652D6F662073656C6563743D226B657928276669656C642D63617074696F6E272C20277B246669656C642F406E616D657D27292F6C786D6C3A68656164696E672D32222F3E0D0A0909090909093C78736C743A76616C75652D6F662073656C6563743D226B657928276669656C642D63617074696F6E272C20277B246669656C642F406E616D657D27292F6C786D6C3A68656164696E672D33222F3E0D0A09090909093C2F78736C3A7768656E3E0D0A0909090909 
LANSA     JQMOBILE  tsp_lansa_jqmobile_webroutine.xsl                 00000000510000100000010003C78736C3A7768656E2074657374203D22246669656C642F74736D6C3A63617074696F6E2F40726566203D20276E6F6E6527223E3C2F78736C3A7768656E3E0D0A090909093C2F78736C3A63686F6F73653E0D0A090909093C78736C3A746578743E26233136303B3C2F78736C3A746578743E0D0A0909093C2F6C6162656C3E0D0A09093C2F78736C3A69663E0D0A093C2F78736C3A74656D706C6174653E0D0A0D0A093C212D2D204669656C642076616C75653A2043686F6F7365206265747765656E207765626C657420616E642064656661756C7420202020202020202D2D3E0D0A093C212D2D2020202020202020202020202020766973 
LANSA     JQMOBILE  tsp_lansa_jqmobile_webroutine.xsl                 000000005100002000000000075616C697A6174696F6E202020202020202020202020202020202020202020202020202020202D2D3E0D0A093C212D2D20506172616D6574657220313A2074736D6C3A6669656C64206F722074736D6C3A636F6C756D6E206E6F646520202020202020202020202D2D3E0D0A0D0A093C78736C3A74656D706C617465206E616D653D226669656C642D76616C7565223E0D0A09093C78736C3A706172616D206E616D653D226669656C64222F3E0D0A09093C78736C3A7661726961626C65206E616D653D226669656C644964222073656C6563743D22636F6E6361742874736D6C3A646174612F74736D6C3A636F6E746578742F74736D6C3A77 
LANSA     JQMOBILE  tsp_lansa_jqmobile_webroutine.xsl                 00000000520000100000010006562726F7574696E652C275F272C246669656C642F406E616D652922202F3E0D0A09093C78736C3A7661726961626C65206E616D653D227573655F7765626C6574222073656C6563743D22246669656C642F74736D6C3A7573652D7765626C6574732F74736D6C3A7573652D7765626C65745B40746563686E6F6C6F67792D73657276696365203D20247473705F716E616D655D222F3E0D0A0909093C78736C3A63686F6F73653E0D0A090909093C78736C3A7768656E20746573743D22247573655F7765626C657420616E64206B657928277765626C6574272C20247573655F7765626C65742F406E616D65292F74736D6C3A746563686E6F 
LANSA     JQMOBILE  tsp_lansa_jqmobile_webroutine.xsl                 00000000520000200000000006C6F67792D73657276696365732F74736D6C3A746563686E6F6C6F67792D736572766963655B406E616D65203D20247473705F716E616D655D223E0D0A09090909093C78736C3A63616C6C2D74656D706C617465206E616D653D227765626C65745F74656D706C6174655F63616C6C223E0D0A0909090909093C78736C3A776974682D706172616D206E616D653D226669656C64222073656C6563743D22246669656C64222F3E0D0A0909090909093C78736C3A776974682D706172616D206E616D653D22666C645F6F725F636F6C222073656C6563743D22276669656C6427222F3E0D0A0909090909093C78736C3A776974682D706172616D 
LANSA     JQMOBILE  tsp_lansa_jqmobile_webroutine.xsl                 0000000053000010000001000206E616D653D226E616D65222073656C6563743D22246669656C642F406E616D65222F3E0D0A0909090909093C78736C3A776974682D706172616D206E616D653D22646973706C61796D6F6465222073656C6563743D22246669656C642F74736D6C3A6D6F64652F746578742829222F3E0D0A0909090909093C78736C3A776974682D706172616D206E616D653D227573655F7765626C6574222073656C6563743D22247573655F7765626C6574222F3E0D0A0909090909093C78736C3A776974682D706172616D206E616D653D227765626C6574222073656C6563743D226B657928277765626C6574272C20247573655F7765626C65742F40 
